{"abi":[{"type":"constructor","inputs":[],"stateMutability":"nonpayable"},{"type":"function","name":"addAuthorizedWallet","inputs":[{"name":"wallet","type":"address","internalType":"address"}],"outputs":[],"stateMutability":"nonpayable"},{"type":"function","name":"authorizedWallets","inputs":[{"name":"","type":"address","internalType":"address"}],"outputs":[{"name":"","type":"bool","internalType":"bool"}],"stateMutability":"view"},{"type":"function","name":"bettingContract","inputs":[],"outputs":[{"name":"","type":"address","internalType":"address"}],"stateMutability":"view"},{"type":"function","name":"getWinningOutcome","inputs":[{"name":"_marketId","type":"uint256","internalType":"uint256"}],"outputs":[{"name":"","type":"string","internalType":"string"}],"stateMutability":"view"},{"type":"function","name":"removeAuthorizedWallet","inputs":[{"name":"wallet","type":"address","internalType":"address"}],"outputs":[],"stateMutability":"nonpayable"},{"type":"function","name":"resolveBet","inputs":[{"name":"_marketId","type":"uint256","internalType":"uint256"},{"name":"_outcome","type":"string","internalType":"string"}],"outputs":[],"stateMutability":"nonpayable"},{"type":"function","name":"setBettingContract","inputs":[{"name":"_bettingContract","type":"address","internalType":"address"}],"outputs":[],"stateMutability":"nonpayable"},{"type":"event","name":"BetResolved","inputs":[{"name":"marketId","type":"uint256","indexed":true,"internalType":"uint256"},{"name":"winningOutcome","type":"string","indexed":false,"internalType":"string"}],"anonymous":false},{"type":"event","name":"BettingContractUpdated","inputs":[{"name":"newBettingContract","type":"address","indexed":true,"internalType":"address"}],"anonymous":false},{"type":"event","name":"WalletAuthorized","inputs":[{"name":"wallet","type":"address","indexed":true,"internalType":"address"}],"anonymous":false},{"type":"event","name":"WalletDeauthorized","inputs":[{"name":"wallet","type":"address","indexed":true,"internalType":"address"}],"anonymous":false},{"type":"error","name":"BetMarketAlreadyResolved","inputs":[]},{"type":"error","name":"BettingContractNotSet","inputs":[]},{"type":"error","name":"NotAuthorized","inputs":[]},{"type":"error","name":"ZeroAddress","inputs":[]}],"bytecode":{"object":"0x6080806040523461002f573360005260026020526040600020600160ff198254161790556107a090816100358239f35b600080fdfe608060408181526004908136101561001657600080fd5b600092833560e01c908163016bf1121461062d57508063084d72f4146105105780631fa38946146104d157806321cb4831146104a557806330fce48b14610410578063b8d64c61146100fb5763faf25f231461007157600080fd5b346100f75760203660031901126100f75781356001600160a01b03811692908390036100f357338452600260205260ff8285205416156100e5575081835260026020528220805460ff191690557f82fdc1fe97c02573b139d470d90dcdf1e79f74ffe06ac356d58e737a2dba87ce8280a280f35b905163ea8e4eb560e01b8152fd5b8380fd5b8280fd5b50346100f757806003193601126100f75781359160249067ffffffffffffffff823581811161040c573660238201121561040c57808301358281116103fa5785519188602091601f19936101568486601f84011601876106f8565b808652368982840101116100f757808985930183880137850101523389526002815260ff878a205416156103ea5788546001600160a01b0392908316156103da57888a526001908183526101ac898c2054610730565b6103ca57898b52818352888b20918551918783116103b8579183918d979695936101d78e9654610730565b601f811161035d575b508490601f84116001146102c3575091808061024295937fc2e1982e2e7e5f430d49f79ef7583b4996724b83c9e7429c42b12eb9f706de9497958c936102b8575b501b916000199060031b1c19161790555b8a519181839283528201876106b8565b0390a2825416803b156100f75761027997838851809a8195829463b8d64c6160e01b84528a8401528b8b84015260448301906106b8565b03925af180156102ae5761028b578580f35b841161029d5750505238808080808580f35b634e487b7160e01b85526041905283fd5b84513d88823e3d90fd5b8b0151925038610221565b8392931690848a52858a20918a5b818110610330575091839161024296947fc2e1982e2e7e5f430d49f79ef7583b4996724b83c9e7429c42b12eb9f706de9498969410610317575b5050811b019055610232565b8a015160001960f88460031b161c19169055388061030b565b9395975091899a509584829597829a9b938394015181550194019201918f9998979593918f9795936102d1565b91939550919388868298999a5220601f850160051c8101918786106103ae575b918f9998979593918f979593601f0160051c01905b81811061039f57506101e0565b998a558f998f97508301610392565b909150819061037d565b634e487b7160e01b8d5260418952898dfd5b8851633682e3bb60e11b81528790fd5b8751638e12101160e01b81528690fd5b865163ea8e4eb560e01b81528590fd5b634e487b7160e01b8852604184528488fd5b8680fd5b5090346100f75760203660031901126100f75780356001600160a01b03811692908390036100f357338452600260205260ff81852054161561049857821561048b57505081546001600160a01b031916811782557fab2024c7a31eaf0475dfe266578ebc4c50a3c7bb00dee7ed9b8b61595c43b66a8280a280f35b5163d92e233d60e01b8152fd5b5163ea8e4eb560e01b8152fd5b8382346104cd57816003193601126104cd57905490516001600160a01b039091168152602090f35b5080fd5b5090346100f75760203660031901126100f757356001600160a01b038116908190036100f757818360ff92602095526002855220541690519015158152f35b50346100f757602091826003193601126100f3578035845260018084528285209083519586918184549461054386610730565b958686528984821691826000146106095750506001146105cd575b50505061056d925003856106f8565b83511561058c575061058890519282849384528301906106b8565b0390f35b82606492519162461bcd60e51b8352820152601b60248201527f426574206d61726b6574206e6f74207265736f6c7665642079657400000000006044820152fd5b889350819291528282205b8583106105f157505061056d935082010138808061055e565b8054838b0185015289945088939092019181016105d8565b93509450505061056d94915060ff191682840152151560051b82010138808061055e565b929050346100f35760203660031901126100f35780356001600160a01b03811693908490036106b457338552600260205260ff8386205416156106a857505081835260026020528220805460ff191660011790557f6adc51adeb121fe2cd9ad017e91270d6368986ac7ef38921131a66b86eb632bc8280a280f35b63ea8e4eb560e01b8152fd5b8480fd5b919082519283825260005b8481106106e4575050826000602080949584010152601f8019910116010190565b6020818301810151848301820152016106c3565b90601f8019910116810190811067ffffffffffffffff82111761071a57604052565b634e487b7160e01b600052604160045260246000fd5b90600182811c92168015610760575b602083101461074a57565b634e487b7160e01b600052602260045260246000fd5b91607f169161073f56fea2646970667358221220c4baa967b819e707779d975066634c68be5470e8de3e9fdfd679c51c61c8389464736f6c63430008140033","linkReferences":{}},"methodIdentifiers":{"addAuthorizedWallet(address)":"016bf112","authorizedWallets(address)":"1fa38946","bettingContract()":"21cb4831","getWinningOutcome(uint256)":"084d72f4","removeAuthorizedWallet(address)":"faf25f23","resolveBet(uint256,string)":"b8d64c61","setBettingContract(address)":"30fce48b"},"id":24}