{"abi":[{"type":"constructor","inputs":[{"name":"_oracle","type":"address","internalType":"address"}],"stateMutability":"nonpayable"},{"type":"function","name":"CREATOR_FEE","inputs":[],"outputs":[{"name":"","type":"uint256","internalType":"uint256"}],"stateMutability":"view"},{"type":"function","name":"MARKET_CREATION_FEE","inputs":[],"outputs":[{"name":"","type":"uint256","internalType":"uint256"}],"stateMutability":"view"},{"type":"function","name":"PLATFORM_FEE","inputs":[],"outputs":[{"name":"","type":"uint256","internalType":"uint256"}],"stateMutability":"view"},{"type":"function","name":"calculatePotentialWinnings","inputs":[{"name":"_marketId","type":"uint256","internalType":"uint256"},{"name":"_bettor","type":"address","internalType":"address"}],"outputs":[{"name":"totalPotentialWinnings","type":"uint256","internalType":"uint256"}],"stateMutability":"view"},{"type":"function","name":"claimWinnings","inputs":[{"name":"_marketId","type":"uint256","internalType":"uint256"}],"outputs":[],"stateMutability":"nonpayable"},{"type":"function","name":"createMarket","inputs":[{"name":"_betTitle","type":"string","internalType":"string"},{"name":"_description","type":"string","internalType":"string"},{"name":"_betDeadline","type":"uint256","internalType":"uint256"},{"name":"_resolutionDeadline","type":"uint256","internalType":"uint256"},{"name":"_outcomes","type":"string[]","internalType":"string[]"},{"name":"_category","type":"uint8","internalType":"enum QuintusMarket.MarketCategory"}],"outputs":[],"stateMutability":"payable"},{"type":"function","name":"getAllMarkets","inputs":[],"outputs":[{"name":"marketIds","type":"uint256[]","internalType":"uint256[]"},{"name":"betTitles","type":"string[]","internalType":"string[]"},{"name":"descriptions","type":"string[]","internalType":"string[]"},{"name":"betDeadlines","type":"uint256[]","internalType":"uint256[]"},{"name":"resolutionDeadlines","type":"uint256[]","internalType":"uint256[]"},{"name":"creators","type":"address[]","internalType":"address[]"},{"name":"resolved","type":"bool[]","internalType":"bool[]"},{"name":"outcomes","type":"string[][]","internalType":"string[][]"},{"name":"totalPools","type":"uint256[]","internalType":"uint256[]"},{"name":"winningOutcomes","type":"string[]","internalType":"string[]"},{"name":"categories","type":"uint8[]","internalType":"enum QuintusMarket.MarketCategory[]"}],"stateMutability":"view"},{"type":"function","name":"getMarketBets","inputs":[{"name":"_marketId","type":"uint256","internalType":"uint256"},{"name":"_outcome","type":"string","internalType":"string"}],"outputs":[{"name":"totalBetsForOutcome","type":"uint256","internalType":"uint256"},{"name":"outcomeWeight","type":"uint256","internalType":"uint256"}],"stateMutability":"view"},{"type":"function","name":"getMarketInfo","inputs":[{"name":"_marketId","type":"uint256","internalType":"uint256"}],"outputs":[{"name":"betTitle","type":"string","internalType":"string"},{"name":"description","type":"string","internalType":"string"},{"name":"betDeadline","type":"uint256","internalType":"uint256"},{"name":"resolutionDeadline","type":"uint256","internalType":"uint256"},{"name":"creator","type":"address","internalType":"address"},{"name":"resolved","type":"bool","internalType":"bool"},{"name":"outcomes","type":"string[]","internalType":"string[]"},{"name":"totalPool","type":"uint256","internalType":"uint256"},{"name":"winningOutcome","type":"string","internalType":"string"},{"name":"category","type":"uint8","internalType":"enum QuintusMarket.MarketCategory"}],"stateMutability":"view"},{"type":"function","name":"hasClaimed","inputs":[{"name":"","type":"uint256","internalType":"uint256"},{"name":"","type":"address","internalType":"address"}],"outputs":[{"name":"","type":"bool","internalType":"bool"}],"stateMutability":"view"},{"type":"function","name":"marketCount","inputs":[],"outputs":[{"name":"","type":"uint256","internalType":"uint256"}],"stateMutability":"view"},{"type":"function","name":"markets","inputs":[{"name":"","type":"uint256","internalType":"uint256"}],"outputs":[{"name":"betTitle","type":"string","internalType":"string"},{"name":"description","type":"string","internalType":"string"},{"name":"betDeadline","type":"uint256","internalType":"uint256"},{"name":"resolutionDeadline","type":"uint256","internalType":"uint256"},{"name":"creator","type":"address","internalType":"address"},{"name":"resolved","type":"bool","internalType":"bool"},{"name":"totalPool","type":"uint256","internalType":"uint256"},{"name":"winningOutcome","type":"string","internalType":"string"},{"name":"paid","type":"bool","internalType":"bool"},{"name":"category","type":"uint8","internalType":"enum QuintusMarket.MarketCategory"},{"name":"marketCreated","type":"bool","internalType":"bool"}],"stateMutability":"view"},{"type":"function","name":"oracle","inputs":[],"outputs":[{"name":"","type":"address","internalType":"contract QuintusOracles"}],"stateMutability":"view"},{"type":"function","name":"owner","inputs":[],"outputs":[{"name":"","type":"address","internalType":"address"}],"stateMutability":"view"},{"type":"function","name":"placeBet","inputs":[{"name":"_marketId","type":"uint256","internalType":"uint256"},{"name":"_outcome","type":"string","internalType":"string"}],"outputs":[],"stateMutability":"payable"},{"type":"function","name":"renounceOwnership","inputs":[],"outputs":[],"stateMutability":"nonpayable"},{"type":"function","name":"resolveBet","inputs":[{"name":"_marketId","type":"uint256","internalType":"uint256"},{"name":"_outcome","type":"string","internalType":"string"}],"outputs":[],"stateMutability":"nonpayable"},{"type":"function","name":"resolveMarket","inputs":[{"name":"_marketId","type":"uint256","internalType":"uint256"}],"outputs":[],"stateMutability":"nonpayable"},{"type":"function","name":"transferOwnership","inputs":[{"name":"newOwner","type":"address","internalType":"address"}],"outputs":[],"stateMutability":"nonpayable"},{"type":"function","name":"userBets","inputs":[{"name":"","type":"uint256","internalType":"uint256"},{"name":"","type":"address","internalType":"address"},{"name":"","type":"uint256","internalType":"uint256"}],"outputs":[{"name":"marketId","type":"uint256","internalType":"uint256"},{"name":"amount","type":"uint256","internalType":"uint256"},{"name":"outcome","type":"string","internalType":"string"},{"name":"status","type":"uint8","internalType":"enum QuintusMarket.BetStatus"}],"stateMutability":"view"},{"type":"event","name":"BetPlaced","inputs":[{"name":"marketId","type":"uint256","indexed":true,"internalType":"uint256"},{"name":"user","type":"address","indexed":false,"internalType":"address"},{"name":"outcome","type":"string","indexed":false,"internalType":"string"},{"name":"amount","type":"uint256","indexed":false,"internalType":"uint256"}],"anonymous":false},{"type":"event","name":"MarketCreated","inputs":[{"name":"marketId","type":"uint256","indexed":true,"internalType":"uint256"},{"name":"betTitle","type":"string","indexed":false,"internalType":"string"},{"name":"creator","type":"address","indexed":false,"internalType":"address"},{"name":"category","type":"uint8","indexed":false,"internalType":"enum QuintusMarket.MarketCategory"}],"anonymous":false},{"type":"event","name":"MarketReadyForResolution","inputs":[{"name":"marketId","type":"uint256","indexed":true,"internalType":"uint256"},{"name":"betTitle","type":"string","indexed":false,"internalType":"string"},{"name":"outcomes","type":"string[]","indexed":false,"internalType":"string[]"},{"name":"totalPool","type":"uint256","indexed":false,"internalType":"uint256"},{"name":"creator","type":"address","indexed":false,"internalType":"address"},{"name":"category","type":"uint8","indexed":false,"internalType":"enum QuintusMarket.MarketCategory"}],"anonymous":false},{"type":"event","name":"MarketResolved","inputs":[{"name":"marketId","type":"uint256","indexed":true,"internalType":"uint256"},{"name":"winningOutcome","type":"string","indexed":false,"internalType":"string"}],"anonymous":false},{"type":"event","name":"OwnershipTransferred","inputs":[{"name":"previousOwner","type":"address","indexed":true,"internalType":"address"},{"name":"newOwner","type":"address","indexed":true,"internalType":"address"}],"anonymous":false},{"type":"event","name":"WinningsClaimed","inputs":[{"name":"marketId","type":"uint256","indexed":true,"internalType":"uint256"},{"name":"user","type":"address","indexed":false,"internalType":"address"},{"name":"amount","type":"uint256","indexed":false,"internalType":"uint256"}],"anonymous":false},{"type":"error","name":"AlreadyPaid","inputs":[]},{"type":"error","name":"BettingAmountCannotBeZero","inputs":[]},{"type":"error","name":"BettingDeadlinePassed","inputs":[]},{"type":"error","name":"InsufficientFee","inputs":[]},{"type":"error","name":"InsufficientOutcomes","inputs":[]},{"type":"error","name":"InvalidBetDeadline","inputs":[]},{"type":"error","name":"InvalidOutcome","inputs":[]},{"type":"error","name":"InvalidResolutionDeadline","inputs":[]},{"type":"error","name":"MarketAlreadyResolved","inputs":[]},{"type":"error","name":"MarketNotCreated","inputs":[]},{"type":"error","name":"MarketNotResolved","inputs":[]},{"type":"error","name":"NoBetsOnWinningOutcome","inputs":[]},{"type":"error","name":"NoExistingBets","inputs":[]},{"type":"error","name":"NoWinningsToClaim","inputs":[]},{"type":"error","name":"OwnableInvalidOwner","inputs":[{"name":"owner","type":"address","internalType":"address"}]},{"type":"error","name":"OwnableUnauthorizedAccount","inputs":[{"name":"account","type":"address","internalType":"address"}]},{"type":"error","name":"ReentrancyGuardReentrantCall","inputs":[]},{"type":"error","name":"TooEarlyToResolve","inputs":[]},{"type":"error","name":"TransferFailed","inputs":[]},{"type":"error","name":"UnauthorizedOracle","inputs":[]}],"bytecode":{"object":"0x60a0346100d357601f6122c938819003918201601f19168301916001600160401b038311848410176100d8578084926020946040528339810103126100d357516001600160a01b0390818116908190036100d35733156100ba576000543360018060a01b0319821617600055604051923391167f8be0079c531659141344cd1fd0a4f28419497f9722a3daafe3b4186f6b6457e0600080a3600180556080526121da90816100ef823960805181818161025501526107b60152f35b604051631e4fbdf760e01b815260006004820152602490fd5b600080fd5b634e487b7160e01b600052604160045260246000fdfe608080604052600436101561001357600080fd5b60003560e01c9081630a6f89811461192a575080631a7dfa9f1461190e57806325bad4041461130557806334fbc9a1146112e95780633ec79193146111b05780635e8af73514610e8157806361c4cc1514610dd3578063620af70914610cb15780636399d03d14610b54578063677bd9ff1461083e578063715018a6146107e55780637dc0d1d0146107a0578063873f6f9e146107535780638da5cb5b1461072a578063b0772d0b14610553578063b1283e7714610432578063b8d64c6114610244578063ec97908214610226578063f2fde38b146101965763f83e87db146100fb57600080fd5b346101915761010936611ab0565b9060005260036020526101256040600020916006830190611d73565b5490811561017f5760070154908115610174576064810281810460640361015e5760409261015291611db6565b82519182526020820152f35b634e487b7160e01b600052601160045260246000fd5b604091506000610152565b60405163716351d760e01b8152600490fd5b600080fd5b34610191576020366003190112610191576004356001600160a01b0381811691829003610191576101c5611c2e565b811561020d57600054826bffffffffffffffffffffffff60a01b821617600055167f8be0079c531659141344cd1fd0a4f28419497f9722a3daafe3b4186f6b6457e0600080a3005b604051631e4fbdf760e01b815260006004820152602490fd5b34610191576000366003190112610191576020600254604051908152f35b346101915761025236611ab0565b907f00000000000000000000000000000000000000000000000000000000000000006001600160a01b0316330361042057806000526020916003835260406000206008810182516001600160401b03811161040a576102b18254611b2a565b601f81116103cf575b5085601f82116001146103455791817f2ec1f84b4079525f1ab2216f53a16f520efec75c91c517667151e55bbea7b9ec9697949260049460009161033a575b508160011b916000199060031b1c19161790555b01805460ff60a01b1916600160a01b1790556040518181529182916103359190830190611a22565b0390a2005b9050860151896102f9565b601f1982169083600052876000209160005b8181106103b857509260049492600192827f2ec1f84b4079525f1ab2216f53a16f520efec75c91c517667151e55bbea7b9ec9a9b98961061039f575b5050811b01905561030d565b88015160001960f88460031b161c191690558980610393565b91928960018192868b015181550194019201610357565b6103fa908360005287600020601f840160051c810191898510610400575b601f0160051c0190611c8a565b866102ba565b90915081906103ed565b634e487b7160e01b600052604160045260246000fd5b60405163db8d1fb760e01b8152600490fd5b346101915760203660031901126101915760043560005260036020526104e060406000206040519061046f826104688184611b64565b0383611965565b60ff61052460405192610490846104898160018501611b64565b0385611965565b60028101549060038101548460048301546007840154926104ee6009604051966104c8886104c18160088501611b64565b0389611965565b0154996040519c8d9c8d610160908181520190611a22565b8c810360208e015290611a22565b9560408b015260608a015260018060a01b03811660808a015260a01c16151560a088015260c087015285820360e0870152611a22565b9181811615156101008501526105436101208501838360081c16611aa3565b60101c1615156101408301520390f35b346101915760003660031901126101915761056c611ecb565b9799989660409691969592949395519a8b9a610160808d528c0161058f91611bfa565b986020998c8b8183039101526105a491611a47565b8b810360408d01526105b591611a47565b8a810360608c01526105c691611bfa565b89810360808b01526105d791611bfa565b88810360a08a015286808351928381520192019060005b81811061070a5750505087810360c089015285808351928381520192019060005b8181106106f15750505086810360e088015282518082528582019186808360051b8301019501926000915b8383106106b95750505050508161065d918761066c959403610100890152611bfa565b90858203610120870152611a47565b83810361014085015281808451928381520193019160005b82811061069357505050500390f35b91938395509080826106a9600194839751611aa3565b0195019101918594939192610684565b9193969780809a9b506106db600193959798601f198682030187528a51611a47565b98019301930190928a999897969594929361063a565b8251151584528a9950928701929187019160010161060f565b82516001600160a01b031684528b9a5092880192918801916001016105ee565b34610191576000366003190112610191576000546040516001600160a01b039091168152602090f35b346101915760403660031901126101915761076c611ae2565b600435600052600560205260406000209060018060a01b0316600052602052602060ff604060002054166040519015158152f35b34610191576000366003190112610191576040517f00000000000000000000000000000000000000000000000000000000000000006001600160a01b03168152602090f35b34610191576000366003190112610191576107fe611c2e565b600080546001600160a01b0319811682556001600160a01b03167f8be0079c531659141344cd1fd0a4f28419497f9722a3daafe3b4186f6b6457e08280a3005b3461019157602080600319360112610191576004359061085c611cc1565b8160005260038082526040600020600481019060ff9081835460a01c1615610b4257856000526005855260406000203360005285528160406000205416610b305760088101936108af6006830186611d99565b54918215610b1e5760070154906000958860005260048852604060002033600052885260406000209182549560005b878110610a10578b8b8b8b81156109fe57601982029180830460190361015e576103e880930492600a820290828204600a0361015e57600085610932829561092d849695859604938492611cb4565b611cb4565b968983526005895260408320338452895260408320600160ff198254161790558280808060018060a01b0394858254165af19661096d611c5a565b5054165af19061097b611c5a565b50600080808086335af19061098e611c5a565b50159182156109f5575b5081156109ec575b506109da577f5380cf6fe903b40c6d5a9e0dfbca2f3a423f0a21520b4d5947ed5169bdba946d91604091825191338352820152a260018055005b6040516312171d8360e31b8152600490fd5b905015846109a0565b15915085610998565b604051634519bd6360e01b8152600490fd5b8183610a1c8388611af8565b5001541683811015610b085715610a36575b6001016108de565b98610a418a86611af8565b506040518c810181610a57826002809601611ce4565b0391610a6b601f1993848101835282611965565b519020908d610a916040519182019282610a85858c611ce4565b03908101835282611965565b51902003610ae75750610ade600191610ad889610ad38a8f610acb8a610ab7838f611af8565b5001805460ff19168a17905588918d611af8565b500154611ca1565b611db6565b90611d66565b995b9050610a2e565b996001919a84610af78389611af8565b50019060ff19825416179055610ae0565b634e487b7160e01b600052602160045260246000fd5b60405163d4d1c7b160e01b8152600490fd5b604051630d70a0e360e41b8152600490fd5b60405163174b639360e11b8152600490fd5b346101915760208060031936011261019157600435610b71611cc1565b80600052600382526040600020600981015460ff8160101c1615610c9f5760038201544210610c8d57600482015460ff8160a01c16610c7b576005830194600784015490610bca6040519560a0875260a0870190611b64565b908582038187015287549081835280830192818360051b8201019960005281600020936000915b848310610c4e578a7f22bd5d5321ce9d1d634d90214f1258550ca0eaeba44c74c521e4ea27d8007d0f8b808f610c458e8e8e604086015260018060a01b0316606085015260ff608085019160081c16611aa3565b0390a260018055005b90919293949a846001610c6b81938f601f19878303018852611b64565b9d01930193019194939290610bf1565b60405163aa43cb2d60e01b8152600490fd5b604051630fce133d60e01b8152600490fd5b6040516396e1352960e01b8152600490fd5b3461019157604036600319011261019157600435610ccd611ae2565b90600091816000526003918260205260406000209160ff9182600985015460101c1615610c9f57600052600460205260406000209060018060a01b031660005260205260406000209182549260005b848110610d68578615876019808202908282041483171561015e57600a820292828404600a14171561015e5761092d610d60926020946103e8809104930490611cb4565b604051908152f35b610d728183611af8565b5084878201541687811015610b085715610d90575b50600101610d1c565b610da06006850160028301611d99565b549081610dae575b50610d87565b97610ad8610dcb92610ad3600180969c0154600789015490611ca1565b969088610da8565b3461019157606036600319011261019157610dec611ae2565b60443590600435600052600460205260406000209060018060a01b0316600052602052604060002090815481101561019157610e2791611af8565b50805490610e6d60018201549160ff600360405192610e4d846104898160028501611b64565b015416926040519485526020850152608060408501526080840190611a22565b6003821015610b0857829160608301520390f35b610e8a36611ab0565b90610e93611cc1565b80600052602091600383526040600020600254831015610c9f5760ff600482015460a01c16610c7b57600281015442101561119f57341561118d5760006005820180549060005b828110611116575b50505015611104576006816007610f089301610eff348254611d66565b90550182611d73565b610f13348254611d66565b9055816000526004835260406000203360005283526040600020926040519060808201916001600160401b03928181108482111761040a576040528481528181019234845260408201908582526060830194600086528854600160401b81101561040a57610f889060019a8b82018155611af8565b9490946110ee575184555188840155600283019151805191821161040a57610fb08354611b2a565b601f81116110be575b508490601f8311600114611057576003949392916000918361104c575b505060001982861b1c191690891b1790555b0191516003811015610b08577ffabf9d34f9bf696c17fd04bafbdc4f74840410108fc5db3f77ea5f0815edc7369360609361103f9260ff801983541691161790556040519384933385528401526060830190611a22565b3460408301520390a28055005b015190508a80610fd6565b9392918991601f1982169084600052876000209160005b898282106110a8575050968360039810611090575b505050811b019055610fe8565b015160001983881b60f8161c191690558a8080611083565b838a015185558e9690940193928301920161106e565b6110e8908460005286600020601f850160051c81019188861061040057601f0160051c0190611c8a565b89610fb9565b634e487b7160e01b600052600060045260246000fd5b60405163c74a206d60e01b8152600490fd5b81600052808860002001604051611142816111348c82018095611ce4565b03601f198101835282611965565b5190206040518981019061116f8b82816111628d878151938492016119ff565b8101038084520182611965565b5190201461117f57600101610eda565b505050506001858080610ee2565b604051633dc8218f60e11b8152600490fd5b60405162543af960e41b8152600490fd5b34610191576020366003190112610191576004356000526003602052604060002060098101549060ff8260101c1615610c9f57611243916112e56112d38360086112bf600261128097015460038401549360ff600482015460078301549661128e604051611229816112228189611b64565b0382611965565b6040519e8f8061123c8160018b01611b64565b0390611965565b61126a61125260058801611e66565b96611263604051809c819301611b64565b038a611965565b6040519e8f9e8f92610140808552840190611a22565b916020818403910152611a22565b9460408d015260608c015260018060a01b03811660808c015260a01c16151560a08a015288820360c08a0152611a47565b9160e0870152858203610100870152611a22565b9160ff61012085019160081c16611aa3565b0390f35b3461019157600036600319011261019157602060405160198152f35b60c0366003190112610191576004356001600160401b038111610191576113309036906004016119a1565b6024356001600160401b0381116101915761134f9036906004016119a1565b6084356001600160401b03811161019157366023820112156101915780600401359061137a826119e8565b906113886040519283611965565b82825260208201906024829460051b820101903682116101915760248101925b8284106118df5750505050600560a4351015610191576113c6611cc1565b4260443511156118ce5760443560643511156118bc5760028151106118aa57662386f26fc100008034106118995760008080809360018060a01b038254165af161140e611c5a565b50156109da57600254600019811461015e5760018101600255600052600360205260406000209284516001600160401b03811161040a5761144f8554611b2a565b601f8111611867575b50806020601f8211600114611800576000916117f5575b508160011b916000199060031b1c19161784555b8051906001600160401b03821161040a5781906114a36001870154611b2a565b601f81116117c0575b50602090601f831160011461174e57600092611743575b50508160011b916000199060031b1c19161760018401555b604435600284015560643560038401556004830180546001600160a01b031916331790555190600160401b821161040a5760058301548260058501558083106116cb575b5090600583016000526020600020916000905b8282106115b65760098501805462ffff00191660a43560081b61ff001617620100001790556002546000198101908790821161015e576115a17f06d87b89e7940705d41ad9741832374ef202320451e21252ed0a64e963891e3d91604051918291606083526060830190611a22565b336020830152610c456040830160a435611aa3565b80518051906001600160401b03821161040a576115d38654611b2a565b601f8111611699575b50602090601f831160011461162957928260019493602093869560009261161e575b5050600019600383901b1c191690841b1787555b01940191019092611532565b015190508b806115fe565b908660005260206000209160005b601f1985168110611681575083602093600196938796938794601f19811610611668575b505050811b018755611612565b015160001960f88460031b161c191690558b808061165b565b91926020600181928685015181550194019201611637565b6116c590876000526020600020601f850160051c8101916020861061040057601f0160051c0190611c8a565b886115dc565b600584016000526020600020908382015b81830181106116ec57505061151f565b806116f960019254611b2a565b80611706575b50016116dc565b601f8111831461171c5750600081555b886116ff565b60009082825261173a601f60208420920160051c8201858301611c8a565b81835555611716565b0151905086806114c3565b9250600186016000526020600020906000935b601f19841685106117a5576001945083601f1981161061178c575b505050811b0160018401556114db565b015160001960f88460031b161c1916905586808061177c565b81810151835560209485019460019093019290910190611761565b6117ef90600188016000526020600020601f850160051c8101916020861061040057601f0160051c0190611c8a565b876114ac565b90508601518761146f565b91508560005260206000206000925b601f198316841061184f576001935082601f19811610611836575b5050811b018455611483565b88015160001960f88460031b161c19169055878061182a565b8881015182556020938401936001909201910161180f565b61189390866000526020600020601f840160051c8101916020851061040057601f0160051c0190611c8a565b86611458565b60405162976f7560e21b8152600490fd5b6040516337c4dd8b60e01b8152600490fd5b6040516322aaf0ed60e21b8152600490fd5b604051629f70e560e61b8152600490fd5b83356001600160401b038111610191576020916119038392602436918701016119a1565b8152019301926113a8565b34610191576000366003190112610191576020604051600a8152f35b346101915760003660031901126101915780662386f26fc1000060209252f35b602081019081106001600160401b0382111761040a57604052565b90601f801991011681019081106001600160401b0382111761040a57604052565b6001600160401b03811161040a57601f01601f191660200190565b81601f82011215610191578035906119b882611986565b926119c66040519485611965565b8284526020838301011161019157816000926020809301838601378301015290565b6001600160401b03811161040a5760051b60200190565b60005b838110611a125750506000910152565b8181015183820152602001611a02565b90602091611a3b815180928185528580860191016119ff565b601f01601f1916010190565b908082519081815260208091019281808460051b8301019501936000915b848310611a755750505050505090565b9091929394958480611a93600193601f198682030187528a51611a22565b9801930193019194939290611a65565b906005821015610b085752565b9060406003198301126101915760043591602435906001600160401b03821161019157611adf916004016119a1565b90565b602435906001600160a01b038216820361019157565b8054821015611b145760005260206000209060021b0190600090565b634e487b7160e01b600052603260045260246000fd5b90600182811c92168015611b5a575b6020831014611b4457565b634e487b7160e01b600052602260045260246000fd5b91607f1691611b39565b9060009291805491611b7583611b2a565b918282526001938481169081600014611bd75750600114611b97575b50505050565b90919394506000526020928360002092846000945b838610611bc3575050505001019038808080611b91565b805485870183015294019385908201611bac565b9294505050602093945060ff191683830152151560051b01019038808080611b91565b90815180825260208080930193019160005b828110611c1a575050505090565b835185529381019392810192600101611c0c565b6000546001600160a01b03163303611c4257565b60405163118cdaa760e01b8152336004820152602490fd5b3d15611c85573d90611c6b82611986565b91611c796040519384611965565b82523d6000602084013e565b606090565b818110611c95575050565b60008155600101611c8a565b8181029291811591840414171561015e57565b9190820391821161015e57565b600260015414611cd2576002600155565b604051633ee5aeb560e01b8152600490fd5b600092918154611cf381611b2a565b92600191808316908115611d4b5750600114611d0f5750505050565b90919293945060005260209081600020906000915b858310611d3a5750505050019038808080611b91565b805485840152918301918101611d24565b60ff1916845250505081151590910201915038808080611b91565b9190820180921161015e57565b602090611d8d9282604051948386809551938492016119ff565b82019081520301902090565b602090611dac9260405193848093611ce4565b9081520301902090565b8115611dc0570490565b634e487b7160e01b600052601260045260246000fd5b90611de0826119e8565b611ded6040519182611965565b8281528092611dfe601f19916119e8565b0190602036910137565b90611e12826119e8565b611e1f6040519182611965565b8281528092611e30601f19916119e8565b019060005b828110611e4157505050565b806060602080938501015201611e35565b8051821015611b145760209160051b010190565b908154611e72816119e8565b92604093611e8285519182611965565b828152809460208092019260005281600020906000935b858510611ea857505050505050565b60018481928451611ebd81611222818a611b64565b815201930194019391611e99565b600280549182156120e757611edf83611dd6565b92611ee981611e08565b92611ef382611e08565b92611efd83611dd6565b92611f0781611dd6565b92611f1182611dd6565b92611f1b83611dd6565b92611f2581611e08565b92611f2f82611dd6565b92611f3983611e08565b92611f4381611dd6565b9260005b828110611f5357505050565b889e9d9c9b9a99988e8a8f8f8f8f9092878094819482600052600393846020528360409a8b60002099611f8591611e52565b52838a5180611f94818c611b64565b03611f9f9082611965565b611fa98284611e52565b52611fb391611e52565b508851839080611fc68160018c01611b64565b03611fd19082611965565b611fdb8284611e52565b52611fe591611e52565b508a86015491611ff491611e52565b528301549161200291611e52565b526004818101549094909286906001600160a01b03851690612025908390611e52565b5261202f91611e52565b60ff809360a01c1615159052600781015461204a868d611e52565b526005928c8661205b848701611e66565b6120658284611e52565b5261206f91611e52565b5051600891908061208281858501611b64565b0361208d9082611965565b612097878d611e52565b526120a2868c611e52565b5060090154901c16916120b58489611e52565b918310156120d25750906001929152019d9798999a9b9c9d611f47565b602190634e487b7160e01b6000525260246000fd5b9150506040908151906120f98261194a565b60009182815283519361210b8561194a565b83855280519361211a8561194a565b8085528151936121298561194a565b8185528251936121388561194a565b8285528351936121478561194a565b8385528051936121568561194a565b8085528151936121658561194a565b8185528251936121748561194a565b8285528351936121838561194a565b83855251926121918461194a565b8084523681379a9998979695949392919056fea2646970667358221220cf87dc86029ebd79e1507c2eeeb4d1a75507957fc7f081cf9a10e4a4a2a4ac7d64736f6c63430008140033","linkReferences":{}},"methodIdentifiers":{"CREATOR_FEE()":"1a7dfa9f","MARKET_CREATION_FEE()":"0a6f8981","PLATFORM_FEE()":"34fbc9a1","calculatePotentialWinnings(uint256,address)":"620af709","claimWinnings(uint256)":"677bd9ff","createMarket(string,string,uint256,uint256,string[],uint8)":"25bad404","getAllMarkets()":"b0772d0b","getMarketBets(uint256,string)":"f83e87db","getMarketInfo(uint256)":"3ec79193","hasClaimed(uint256,address)":"873f6f9e","marketCount()":"ec979082","markets(uint256)":"b1283e77","oracle()":"7dc0d1d0","owner()":"8da5cb5b","placeBet(uint256,string)":"5e8af735","renounceOwnership()":"715018a6","resolveBet(uint256,string)":"b8d64c61","resolveMarket(uint256)":"6399d03d","transferOwnership(address)":"f2fde38b","userBets(uint256,address,uint256)":"61c4cc15"},"id":23}