{"abi":[{"type":"constructor","inputs":[{"name":"_oracle","type":"address","internalType":"address"}],"stateMutability":"nonpayable"},{"type":"function","name":"CREATOR_FEE","inputs":[],"outputs":[{"name":"","type":"uint256","internalType":"uint256"}],"stateMutability":"view"},{"type":"function","name":"MARKET_CREATION_FEE","inputs":[],"outputs":[{"name":"","type":"uint256","internalType":"uint256"}],"stateMutability":"view"},{"type":"function","name":"PLATFORM_FEE","inputs":[],"outputs":[{"name":"","type":"uint256","internalType":"uint256"}],"stateMutability":"view"},{"type":"function","name":"claimWinnings","inputs":[{"name":"_marketId","type":"uint256","internalType":"uint256"}],"outputs":[],"stateMutability":"nonpayable"},{"type":"function","name":"createMarket","inputs":[{"name":"_betTitle","type":"string","internalType":"string"},{"name":"_description","type":"string","internalType":"string"},{"name":"_betDeadline","type":"uint256","internalType":"uint256"},{"name":"_resolutionDeadline","type":"uint256","internalType":"uint256"},{"name":"_outcomes","type":"string[]","internalType":"string[]"},{"name":"_category","type":"uint8","internalType":"enum QuintusMarket.MarketCategory"}],"outputs":[],"stateMutability":"payable"},{"type":"function","name":"getAllMarkets","inputs":[],"outputs":[{"name":"marketIds","type":"uint256[]","internalType":"uint256[]"},{"name":"betTitles","type":"string[]","internalType":"string[]"},{"name":"descriptions","type":"string[]","internalType":"string[]"},{"name":"betDeadlines","type":"uint256[]","internalType":"uint256[]"},{"name":"resolutionDeadlines","type":"uint256[]","internalType":"uint256[]"},{"name":"creators","type":"address[]","internalType":"address[]"},{"name":"resolved","type":"bool[]","internalType":"bool[]"},{"name":"outcomes","type":"string[][]","internalType":"string[][]"},{"name":"totalPools","type":"uint256[]","internalType":"uint256[]"},{"name":"winningOutcomes","type":"string[]","internalType":"string[]"},{"name":"categories","type":"uint8[]","internalType":"enum QuintusMarket.MarketCategory[]"}],"stateMutability":"view"},{"type":"function","name":"getMarketBets","inputs":[{"name":"_marketId","type":"uint256","internalType":"uint256"},{"name":"_outcome","type":"string","internalType":"string"}],"outputs":[{"name":"totalBetsForOutcome","type":"uint256","internalType":"uint256"},{"name":"outcomeWeight","type":"uint256","internalType":"uint256"}],"stateMutability":"view"},{"type":"function","name":"getMarketInfo","inputs":[{"name":"_marketId","type":"uint256","internalType":"uint256"}],"outputs":[{"name":"betTitle","type":"string","internalType":"string"},{"name":"description","type":"string","internalType":"string"},{"name":"betDeadline","type":"uint256","internalType":"uint256"},{"name":"resolutionDeadline","type":"uint256","internalType":"uint256"},{"name":"creator","type":"address","internalType":"address"},{"name":"resolved","type":"bool","internalType":"bool"},{"name":"outcomes","type":"string[]","internalType":"string[]"},{"name":"totalPool","type":"uint256","internalType":"uint256"},{"name":"winningOutcome","type":"string","internalType":"string"},{"name":"category","type":"uint8","internalType":"enum QuintusMarket.MarketCategory"}],"stateMutability":"view"},{"type":"function","name":"marketCount","inputs":[],"outputs":[{"name":"","type":"uint256","internalType":"uint256"}],"stateMutability":"view"},{"type":"function","name":"markets","inputs":[{"name":"","type":"uint256","internalType":"uint256"}],"outputs":[{"name":"betTitle","type":"string","internalType":"string"},{"name":"description","type":"string","internalType":"string"},{"name":"betDeadline","type":"uint256","internalType":"uint256"},{"name":"resolutionDeadline","type":"uint256","internalType":"uint256"},{"name":"creator","type":"address","internalType":"address"},{"name":"resolved","type":"bool","internalType":"bool"},{"name":"totalPool","type":"uint256","internalType":"uint256"},{"name":"winningOutcome","type":"string","internalType":"string"},{"name":"paid","type":"bool","internalType":"bool"},{"name":"category","type":"uint8","internalType":"enum QuintusMarket.MarketCategory"},{"name":"marketCreated","type":"bool","internalType":"bool"}],"stateMutability":"view"},{"type":"function","name":"oracle","inputs":[],"outputs":[{"name":"","type":"address","internalType":"contract QuintusOracles"}],"stateMutability":"view"},{"type":"function","name":"owner","inputs":[],"outputs":[{"name":"","type":"address","internalType":"address"}],"stateMutability":"view"},{"type":"function","name":"placeBet","inputs":[{"name":"_marketId","type":"uint256","internalType":"uint256"},{"name":"_outcome","type":"string","internalType":"string"}],"outputs":[],"stateMutability":"payable"},{"type":"function","name":"renounceOwnership","inputs":[],"outputs":[],"stateMutability":"nonpayable"},{"type":"function","name":"resolveBet","inputs":[{"name":"_marketId","type":"uint256","internalType":"uint256"},{"name":"_outcome","type":"string","internalType":"string"}],"outputs":[],"stateMutability":"nonpayable"},{"type":"function","name":"resolveMarket","inputs":[{"name":"_marketId","type":"uint256","internalType":"uint256"}],"outputs":[],"stateMutability":"nonpayable"},{"type":"function","name":"transferOwnership","inputs":[{"name":"newOwner","type":"address","internalType":"address"}],"outputs":[],"stateMutability":"nonpayable"},{"type":"function","name":"userBets","inputs":[{"name":"","type":"uint256","internalType":"uint256"},{"name":"","type":"address","internalType":"address"},{"name":"","type":"uint256","internalType":"uint256"}],"outputs":[{"name":"amount","type":"uint256","internalType":"uint256"},{"name":"outcome","type":"string","internalType":"string"},{"name":"status","type":"uint8","internalType":"enum QuintusMarket.BetStatus"},{"name":"potentialWinnings","type":"uint256","internalType":"uint256"}],"stateMutability":"view"},{"type":"event","name":"BetPlaced","inputs":[{"name":"marketId","type":"uint256","indexed":true,"internalType":"uint256"},{"name":"user","type":"address","indexed":false,"internalType":"address"},{"name":"outcome","type":"string","indexed":false,"internalType":"string"},{"name":"amount","type":"uint256","indexed":false,"internalType":"uint256"}],"anonymous":false},{"type":"event","name":"MarketCreated","inputs":[{"name":"marketId","type":"uint256","indexed":true,"internalType":"uint256"},{"name":"betTitle","type":"string","indexed":false,"internalType":"string"},{"name":"creator","type":"address","indexed":false,"internalType":"address"},{"name":"category","type":"uint8","indexed":false,"internalType":"enum QuintusMarket.MarketCategory"}],"anonymous":false},{"type":"event","name":"MarketReadyForResolution","inputs":[{"name":"marketId","type":"uint256","indexed":true,"internalType":"uint256"},{"name":"betTitle","type":"string","indexed":false,"internalType":"string"},{"name":"outcomes","type":"string[]","indexed":false,"internalType":"string[]"},{"name":"totalPool","type":"uint256","indexed":false,"internalType":"uint256"},{"name":"creator","type":"address","indexed":false,"internalType":"address"},{"name":"category","type":"uint8","indexed":false,"internalType":"enum QuintusMarket.MarketCategory"}],"anonymous":false},{"type":"event","name":"MarketResolved","inputs":[{"name":"marketId","type":"uint256","indexed":true,"internalType":"uint256"},{"name":"winningOutcome","type":"string","indexed":false,"internalType":"string"}],"anonymous":false},{"type":"event","name":"OwnershipTransferred","inputs":[{"name":"previousOwner","type":"address","indexed":true,"internalType":"address"},{"name":"newOwner","type":"address","indexed":true,"internalType":"address"}],"anonymous":false},{"type":"event","name":"WinningsClaimed","inputs":[{"name":"marketId","type":"uint256","indexed":true,"internalType":"uint256"},{"name":"user","type":"address","indexed":false,"internalType":"address"},{"name":"amount","type":"uint256","indexed":false,"internalType":"uint256"}],"anonymous":false},{"type":"error","name":"BettingAmountCannotBeZero","inputs":[]},{"type":"error","name":"BettingDeadlinePassed","inputs":[]},{"type":"error","name":"InsufficientFee","inputs":[]},{"type":"error","name":"InsufficientOutcomes","inputs":[]},{"type":"error","name":"InvalidBetDeadline","inputs":[]},{"type":"error","name":"InvalidOutcome","inputs":[]},{"type":"error","name":"InvalidResolutionDeadline","inputs":[]},{"type":"error","name":"MarketAlreadyResolved","inputs":[]},{"type":"error","name":"MarketNotCreated","inputs":[]},{"type":"error","name":"MarketNotResolved","inputs":[]},{"type":"error","name":"NoBetsOnWinningOutcome","inputs":[]},{"type":"error","name":"NoWinningsToClaim","inputs":[]},{"type":"error","name":"OwnableInvalidOwner","inputs":[{"name":"owner","type":"address","internalType":"address"}]},{"type":"error","name":"OwnableUnauthorizedAccount","inputs":[{"name":"account","type":"address","internalType":"address"}]},{"type":"error","name":"ReentrancyGuardReentrantCall","inputs":[]},{"type":"error","name":"TooEarlyToResolve","inputs":[]},{"type":"error","name":"TransferFailed","inputs":[]},{"type":"error","name":"UnauthorizedOracle","inputs":[]}],"bytecode":{"object":"0x60a0346100d357601f61208a38819003918201601f19168301916001600160401b038311848410176100d8578084926020946040528339810103126100d357516001600160a01b0390818116908190036100d35733156100ba576000543360018060a01b0319821617600055604051923391167f8be0079c531659141344cd1fd0a4f28419497f9722a3daafe3b4186f6b6457e0600080a360018055608052611f9b90816100ef823960805181818161022b015261073f0152f35b604051631e4fbdf760e01b815260006004820152602490fd5b600080fd5b634e487b7160e01b600052604160045260246000fdfe608080604052600436101561001357600080fd5b60003560e01c9081630a6f89811461171e575080631a7dfa9f1461170257806325bad4041461111a57806334fbc9a1146110fe5780633ec7919314610fd85780635e8af73514610c9757806361c4cc1514610bdd5780636399d03d14610a80578063677bd9ff146107c7578063715018a61461076e5780637dc0d1d0146107295780638da5cb5b14610700578063b0772d0b14610529578063b1283e7714610408578063b8d64c611461021a578063ec979082146101fc578063f2fde38b1461016c5763f83e87db146100e557600080fd5b34610167576100f3366118a4565b90600052600360205260076101116040600020926006840190611b21565b5491015490811561015c5760648102818104606414821517156101465760409261013a91611b47565b82519182526020820152f35b634e487b7160e01b600052601160045260246000fd5b60409150600061013a565b600080fd5b34610167576020366003190112610167576004356001600160a01b03818116918290036101675761019b611a0c565b81156101e357600054826bffffffffffffffffffffffff60a01b821617600055167f8be0079c531659141344cd1fd0a4f28419497f9722a3daafe3b4186f6b6457e0600080a3005b604051631e4fbdf760e01b815260006004820152602490fd5b34610167576000366003190112610167576020600254604051908152f35b3461016757610228366118a4565b907f00000000000000000000000000000000000000000000000000000000000000006001600160a01b031633036103f657806000526020916003835260406000206008810182516001600160401b0381116103e0576102878254611908565b601f81116103a5575b5085601f821160011461031b5791817f2ec1f84b4079525f1ab2216f53a16f520efec75c91c517667151e55bbea7b9ec96979492600494600091610310575b508160011b916000199060031b1c19161790555b01805460ff60a01b1916600160a01b17905560405181815291829161030b9190830190611816565b0390a2005b9050860151896102cf565b601f1982169083600052876000209160005b81811061038e57509260049492600192827f2ec1f84b4079525f1ab2216f53a16f520efec75c91c517667151e55bbea7b9ec9a9b989610610375575b5050811b0190556102e3565b88015160001960f88460031b161c191690558980610369565b91928960018192868b01518155019401920161032d565b6103d0908360005287600020601f840160051c8101918985106103d6575b601f0160051c0190611a38565b86610290565b90915081906103c3565b634e487b7160e01b600052604160045260246000fd5b60405163db8d1fb760e01b8152600490fd5b346101675760203660031901126101675760043560005260036020526104b66040600020604051906104458261043e8184611942565b0383611759565b60ff6104fa604051926104668461045f8160018501611942565b0385611759565b60028101549060038101548460048301546007840154926104c460096040519661049e886104978160088501611942565b0389611759565b0154996040519c8d9c8d610160908181520190611816565b8c810360208e015290611816565b9560408b015260608a015260018060a01b03811660808a015260a01c16151560a088015260c087015285820360e0870152611816565b9181811615156101008501526105196101208501838360081c16611897565b60101c1615156101408301520390f35b3461016757600036600319011261016757610542611c8c565b9799989660409691969592949395519a8b9a610160808d528c01610565916119d8565b986020998c8b81830391015261057a9161183b565b8b810360408d015261058b9161183b565b8a810360608c015261059c916119d8565b89810360808b01526105ad916119d8565b88810360a08a015286808351928381520192019060005b8181106106e05750505087810360c089015285808351928381520192019060005b8181106106c75750505086810360e088015282518082528582019186808360051b8301019501926000915b83831061068f5750505050508161063391876106429594036101008901526119d8565b9085820361012087015261183b565b83810361014085015281808451928381520193019160005b82811061066957505050500390f35b919383955090808261067f600194839751611897565b019501910191859493919261065a565b9193969780809a9b506106b1600193959798601f198682030187528a5161183b565b98019301930190928a9998979695949293610610565b8251151584528a995092870192918701916001016105e5565b82516001600160a01b031684528b9a5092880192918801916001016105c4565b34610167576000366003190112610167576000546040516001600160a01b039091168152602090f35b34610167576000366003190112610167576040517f00000000000000000000000000000000000000000000000000000000000000006001600160a01b03168152602090f35b3461016757600036600319011261016757610787611a0c565b600080546001600160a01b0319811682556001600160a01b03167f8be0079c531659141344cd1fd0a4f28419497f9722a3daafe3b4186f6b6457e08280a3005b346101675760208060031936011261016757600435906107e5611a6f565b816000526003808252604060002090600482019060ff80835460a01c1615610a6e576008840191604051868161081b8187611a92565b6006890181520301902054948515610a5c5760070154946000958860005260048852604060002033600052885260406000209081549560005b878110610967578b8b8b8b8115610955576019820291808304601903610146576103e880930492600a820290828204600a03610146576000856108a882956108a3849695859604938492611a62565b611a62565b968280808060018060a01b0394858254165af1966108c4611b67565b5054165af1906108d2611b67565b50600080808086335af1906108e5611b67565b501591821561094c575b508115610943575b50610931577f5380cf6fe903b40c6d5a9e0dfbca2f3a423f0a21520b4d5947ed5169bdba946d91604091825191338352820152a260018055005b6040516312171d8360e31b8152600490fd5b905015846108f7565b159150856108ef565b604051634519bd6360e01b8152600490fd5b61097181856118d6565b50876002809201541687811015610a465715806109e0575b610997575b50600101610854565b819a6109d3876109ce876109c7876109d9976109b560019a8e6118d6565b5001805460ff19168a1790558b6118d6565b5054611a4f565b611b47565b90611b14565b999061098e565b506109eb82866118d6565b5060018d610a03604051938492830193849101611a92565b0391610a17601f1993848101835282611759565b519020908d610a3d6040519182019282610a31858a611a92565b03908101835282611759565b51902014610989565b634e487b7160e01b600052602160045260246000fd5b60405163d4d1c7b160e01b8152600490fd5b60405163174b639360e11b8152600490fd5b346101675760208060031936011261016757600435610a9d611a6f565b80600052600382526040600020600981015460ff8160101c1615610bcb5760038201544210610bb957600482015460ff8160a01c16610ba7576005830194600784015490610af66040519560a0875260a0870190611942565b908582038187015287549081835280830192818360051b8201019960005281600020936000915b848310610b7a578a7f22bd5d5321ce9d1d634d90214f1258550ca0eaeba44c74c521e4ea27d8007d0f8b808f610b718e8e8e604086015260018060a01b0316606085015260ff608085019160081c16611897565b0390a260018055005b90919293949a846001610b9781938f601f19878303018852611942565b9d01930193019194939290610b1d565b60405163aa43cb2d60e01b8152600490fd5b604051630fce133d60e01b8152600490fd5b6040516396e1352960e01b8152600490fd5b34610167576060366003190112610167576024356001600160a01b0381169081900361016757604435906004356000526004602052604060002090600052602052604060002090815481101561016757610c36916118d6565b50805490604051610c5581610c4e8160018601611942565b0382611759565b610c7d600360ff60028501541693015491604051948552608060208601526080850190611816565b906003831015610a46578392604084015260608301520390f35b610ca0366118a4565b90610ca9611a6f565b8060005260209160038352604060002060ff600482015460a01c16610ba7576002810154421015610fc7573415610fb55760006005820180549060005b828110610f3e575b50505015610f2c5780610d3b610d3460066007610d42950193610d12348654611b14565b85550192610d208487611b21565b610d2b348254611b14565b90555434611a4f565b9184611b21565b5490611b47565b826000526004845260406000203360005284526040600020936040519260808401906001600160401b0391858110838211176103e057604052348552828501818152604086019260008452606087019586528854600160401b8110156103e057610db39060019a8b820181556118d6565b979097610f1657518755888701915180519182116103e0578190610dd78454611908565b601f8111610ee6575b508690601f8311600114610e8357600092610e78575b5050600019600383901b1c191690891b1790555b600285019151946003861015610a46576003606095610e6b947ffabf9d34f9bf696c17fd04bafbdc4f74840410108fc5db3f77ea5f0815edc7369860ff80198354169116179055519101556040519384933385528401526060830190611816565b3460408301520390a28055005b015190508a80610df6565b908b9350601f1983169185600052886000209260005b8a828210610ed05750508411610eb7575b505050811b019055610e0a565b015160001960f88460031b161c191690558a8080610eaa565b8385015186558f97909501949384019301610e99565b610f10908560005288600020601f850160051c8101918a86106103d657601f0160051c0190611a38565b8b610de0565b634e487b7160e01b600052600060045260246000fd5b60405163c74a206d60e01b8152600490fd5b81600052808860002001604051610f6a81610f5c8c82018095611a92565b03601f198101835282611759565b51902060405189810190610f978b8281610f8a8d878151938492016117f3565b8101038084520182611759565b51902014610fa757600101610ce6565b505050506001858080610cee565b604051633dc8218f60e11b8152600490fd5b60405162543af960e41b8152600490fd5b3461016757602036600319011261016757600435600052600360205261105861109560406000206110fa6110e860028301549260086110d460038301549560048401549360ff6007820154956009830154996110a360405161103e81610c4e8189611942565b6040519e8f806110518160018b01611942565b0390611759565b61107f61106760058801611c27565b96611078604051809c819301611942565b038a611759565b6040519e8f9e8f92610140808552840190611816565b916020818403910152611816565b9460408d015260608c015260018060a01b03811660808c015260a01c16151560a08a015288820360c08a015261183b565b9160e0870152858203610100870152611816565b9160ff61012085019160081c16611897565b0390f35b3461016757600036600319011261016757602060405160198152f35b60c0366003190112610167576004356001600160401b03811161016757611145903690600401611795565b6024356001600160401b03811161016757611164903690600401611795565b6084356001600160401b03811161016757366023820112156101675780600401359061118f826117dc565b9061119d6040519283611759565b82825260208201906024829460051b820101903682116101675760248101925b8284106116d35750505050600560a4351015610167576111db611a6f565b4260443511156116c25760443560643511156116b057600281511061169e57662386f26fc10000341061168d5760025460001981146101465760018101600255600052600360205260406000209284516001600160401b0381116103e0576112438554611908565b601f811161165b575b50806020601f82116001146115f4576000916115e9575b508160011b916000199060031b1c19161784555b8051906001600160401b0382116103e05781906112976001870154611908565b601f81116115b4575b50602090601f831160011461154257600092611537575b50508160011b916000199060031b1c19161760018401555b604435600284015560643560038401556004830180546001600160a01b031916331790555190600160401b82116103e05760058301548260058501558083106114bf575b5090600583016000526020600020916000905b8282106113aa5760098501805462ffff00191660a43560081b61ff0016176201000017905560025460001981019087908211610146576113957f06d87b89e7940705d41ad9741832374ef202320451e21252ed0a64e963891e3d91604051918291606083526060830190611816565b336020830152610b716040830160a435611897565b80518051906001600160401b0382116103e0576113c78654611908565b601f811161148d575b50602090601f831160011461141d579282600194936020938695600092611412575b5050600019600383901b1c191690841b1787555b01940191019092611326565b015190508b806113f2565b908660005260206000209160005b601f1985168110611475575083602093600196938796938794601f1981161061145c575b505050811b018755611406565b015160001960f88460031b161c191690558b808061144f565b9192602060018192868501518155019401920161142b565b6114b990876000526020600020601f850160051c810191602086106103d657601f0160051c0190611a38565b886113d0565b600584016000526020600020908382015b81830181106114e0575050611313565b806114ed60019254611908565b806114fa575b50016114d0565b601f811183146115105750600081555b886114f3565b60009082825261152e601f60208420920160051c8201858301611a38565b8183555561150a565b0151905086806112b7565b9250600186016000526020600020906000935b601f1984168510611599576001945083601f19811610611580575b505050811b0160018401556112cf565b015160001960f88460031b161c19169055868080611570565b81810151835560209485019460019093019290910190611555565b6115e390600188016000526020600020601f850160051c810191602086106103d657601f0160051c0190611a38565b876112a0565b905086015187611263565b91508560005260206000206000925b601f1983168410611643576001935082601f1981161061162a575b5050811b018455611277565b88015160001960f88460031b161c19169055878061161e565b88810151825560209384019360019092019101611603565b61168790866000526020600020601f840160051c810191602085106103d657601f0160051c0190611a38565b8661124c565b60405162976f7560e21b8152600490fd5b6040516337c4dd8b60e01b8152600490fd5b6040516322aaf0ed60e21b8152600490fd5b604051629f70e560e61b8152600490fd5b83356001600160401b038111610167576020916116f7839260243691870101611795565b8152019301926111bd565b34610167576000366003190112610167576020604051600a8152f35b346101675760003660031901126101675780662386f26fc1000060209252f35b602081019081106001600160401b038211176103e057604052565b90601f801991011681019081106001600160401b038211176103e057604052565b6001600160401b0381116103e057601f01601f191660200190565b81601f82011215610167578035906117ac8261177a565b926117ba6040519485611759565b8284526020838301011161016757816000926020809301838601378301015290565b6001600160401b0381116103e05760051b60200190565b60005b8381106118065750506000910152565b81810151838201526020016117f6565b9060209161182f815180928185528580860191016117f3565b601f01601f1916010190565b908082519081815260208091019281808460051b8301019501936000915b8483106118695750505050505090565b9091929394958480611887600193601f198682030187528a51611816565b9801930193019194939290611859565b906005821015610a465752565b9060406003198301126101675760043591602435906001600160401b038211610167576118d391600401611795565b90565b80548210156118f25760005260206000209060021b0190600090565b634e487b7160e01b600052603260045260246000fd5b90600182811c92168015611938575b602083101461192257565b634e487b7160e01b600052602260045260246000fd5b91607f1691611917565b906000929180549161195383611908565b9182825260019384811690816000146119b55750600114611975575b50505050565b90919394506000526020928360002092846000945b8386106119a157505050500101903880808061196f565b80548587018301529401938590820161198a565b9294505050602093945060ff191683830152151560051b0101903880808061196f565b90815180825260208080930193019160005b8281106119f8575050505090565b8351855293810193928101926001016119ea565b6000546001600160a01b03163303611a2057565b60405163118cdaa760e01b8152336004820152602490fd5b818110611a43575050565b60008155600101611a38565b8181029291811591840414171561014657565b9190820391821161014657565b600260015414611a80576002600155565b604051633ee5aeb560e01b8152600490fd5b600092918154611aa181611908565b92600191808316908115611af95750600114611abd5750505050565b90919293945060005260209081600020906000915b858310611ae8575050505001903880808061196f565b805485840152918301918101611ad2565b60ff191684525050508115159091020191503880808061196f565b9190820180921161014657565b602090611b3b9282604051948386809551938492016117f3565b82019081520301902090565b8115611b51570490565b634e487b7160e01b600052601260045260246000fd5b3d15611b92573d90611b788261177a565b91611b866040519384611759565b82523d6000602084013e565b606090565b90611ba1826117dc565b611bae6040519182611759565b8281528092611bbf601f19916117dc565b0190602036910137565b90611bd3826117dc565b611be06040519182611759565b8281528092611bf1601f19916117dc565b019060005b828110611c0257505050565b806060602080938501015201611bf6565b80518210156118f25760209160051b010190565b908154611c33816117dc565b92604093611c4385519182611759565b828152809460208092019260005281600020906000935b858510611c6957505050505050565b60018481928451611c7e81610c4e818a611942565b815201930194019391611c5a565b60028054918215611ea857611ca083611b97565b92611caa81611bc9565b92611cb482611bc9565b92611cbe83611b97565b92611cc881611b97565b92611cd282611b97565b92611cdc83611b97565b92611ce681611bc9565b92611cf082611b97565b92611cfa83611bc9565b92611d0481611b97565b9260005b828110611d1457505050565b889e9d9c9b9a99988e8a8f8f8f8f9092878094819482600052600393846020528360409a8b60002099611d4691611c13565b52838a5180611d55818c611942565b03611d609082611759565b611d6a8284611c13565b52611d7491611c13565b508851839080611d878160018c01611942565b03611d929082611759565b611d9c8284611c13565b52611da691611c13565b508a86015491611db591611c13565b5283015491611dc391611c13565b526004818101549094909286906001600160a01b03851690611de6908390611c13565b52611df091611c13565b60ff809360a01c16151590526007810154611e0b868d611c13565b526005928c86611e1c848701611c27565b611e268284611c13565b52611e3091611c13565b50516008919080611e4381858501611942565b03611e4e9082611759565b611e58878d611c13565b52611e63868c611c13565b5060090154901c1691611e768489611c13565b91831015611e935750906001929152019d9798999a9b9c9d611d08565b602190634e487b7160e01b6000525260246000fd5b915050604090815190611eba8261173e565b600091828152835193611ecc8561173e565b838552805193611edb8561173e565b808552815193611eea8561173e565b818552825193611ef98561173e565b828552835193611f088561173e565b838552805193611f178561173e565b808552815193611f268561173e565b818552825193611f358561173e565b828552835193611f448561173e565b8385525192611f528461173e565b8084523681379a9998979695949392919056fea2646970667358221220883594f96f8871140ac7581a1fb344629c49e81fff4350eb84c24f88b6dba9f764736f6c63430008140033","linkReferences":{}},"methodIdentifiers":{"CREATOR_FEE()":"1a7dfa9f","MARKET_CREATION_FEE()":"0a6f8981","PLATFORM_FEE()":"34fbc9a1","claimWinnings(uint256)":"677bd9ff","createMarket(string,string,uint256,uint256,string[],uint8)":"25bad404","getAllMarkets()":"b0772d0b","getMarketBets(uint256,string)":"f83e87db","getMarketInfo(uint256)":"3ec79193","marketCount()":"ec979082","markets(uint256)":"b1283e77","oracle()":"7dc0d1d0","owner()":"8da5cb5b","placeBet(uint256,string)":"5e8af735","renounceOwnership()":"715018a6","resolveBet(uint256,string)":"b8d64c61","resolveMarket(uint256)":"6399d03d","transferOwnership(address)":"f2fde38b","userBets(uint256,address,uint256)":"61c4cc15"},"id":23}