{"abi":[{"type":"constructor","inputs":[{"name":"_oracle","type":"address","internalType":"address"}],"stateMutability":"nonpayable"},{"type":"function","name":"CREATOR_FEE","inputs":[],"outputs":[{"name":"","type":"uint256","internalType":"uint256"}],"stateMutability":"view"},{"type":"function","name":"MARKET_CREATION_FEE","inputs":[],"outputs":[{"name":"","type":"uint256","internalType":"uint256"}],"stateMutability":"view"},{"type":"function","name":"PLATFORM_FEE","inputs":[],"outputs":[{"name":"","type":"uint256","internalType":"uint256"}],"stateMutability":"view"},{"type":"function","name":"calculateBetWinnings","inputs":[{"name":"_bet","type":"tuple","internalType":"struct QuintusMarket.Bet","components":[{"name":"marketId","type":"uint256","internalType":"uint256"},{"name":"amount","type":"uint256","internalType":"uint256"},{"name":"outcome","type":"string","internalType":"string"},{"name":"status","type":"uint8","internalType":"enum QuintusMarket.BetStatus"}]}],"outputs":[{"name":"winnings","type":"uint256","internalType":"uint256"}],"stateMutability":"view"},{"type":"function","name":"claimWinnings","inputs":[{"name":"_marketId","type":"uint256","internalType":"uint256"}],"outputs":[],"stateMutability":"nonpayable"},{"type":"function","name":"createMarket","inputs":[{"name":"_betTitle","type":"string","internalType":"string"},{"name":"_description","type":"string","internalType":"string"},{"name":"_betDeadline","type":"uint256","internalType":"uint256"},{"name":"_resolutionDeadline","type":"uint256","internalType":"uint256"},{"name":"_outcomes","type":"string[]","internalType":"string[]"},{"name":"_category","type":"uint8","internalType":"enum QuintusMarket.MarketCategory"}],"outputs":[],"stateMutability":"payable"},{"type":"function","name":"getAllMarkets","inputs":[],"outputs":[{"name":"marketIds","type":"uint256[]","internalType":"uint256[]"},{"name":"betTitles","type":"string[]","internalType":"string[]"},{"name":"descriptions","type":"string[]","internalType":"string[]"},{"name":"betDeadlines","type":"uint256[]","internalType":"uint256[]"},{"name":"resolutionDeadlines","type":"uint256[]","internalType":"uint256[]"},{"name":"creators","type":"address[]","internalType":"address[]"},{"name":"resolved","type":"bool[]","internalType":"bool[]"},{"name":"outcomes","type":"string[][]","internalType":"string[][]"},{"name":"totalPools","type":"uint256[]","internalType":"uint256[]"},{"name":"winningOutcomes","type":"string[]","internalType":"string[]"},{"name":"categories","type":"uint8[]","internalType":"enum QuintusMarket.MarketCategory[]"}],"stateMutability":"view"},{"type":"function","name":"getMarketBets","inputs":[{"name":"_marketId","type":"uint256","internalType":"uint256"},{"name":"_outcome","type":"string","internalType":"string"}],"outputs":[{"name":"totalBetsForOutcome","type":"uint256","internalType":"uint256"},{"name":"outcomeWeight","type":"uint256","internalType":"uint256"}],"stateMutability":"view"},{"type":"function","name":"getMarketInfo","inputs":[{"name":"_marketId","type":"uint256","internalType":"uint256"}],"outputs":[{"name":"betTitle","type":"string","internalType":"string"},{"name":"description","type":"string","internalType":"string"},{"name":"betDeadline","type":"uint256","internalType":"uint256"},{"name":"resolutionDeadline","type":"uint256","internalType":"uint256"},{"name":"creator","type":"address","internalType":"address"},{"name":"resolved","type":"bool","internalType":"bool"},{"name":"outcomes","type":"string[]","internalType":"string[]"},{"name":"totalPool","type":"uint256","internalType":"uint256"},{"name":"winningOutcome","type":"string","internalType":"string"},{"name":"category","type":"uint8","internalType":"enum QuintusMarket.MarketCategory"}],"stateMutability":"view"},{"type":"function","name":"hasClaimed","inputs":[{"name":"","type":"uint256","internalType":"uint256"},{"name":"","type":"address","internalType":"address"}],"outputs":[{"name":"","type":"bool","internalType":"bool"}],"stateMutability":"view"},{"type":"function","name":"marketCount","inputs":[],"outputs":[{"name":"","type":"uint256","internalType":"uint256"}],"stateMutability":"view"},{"type":"function","name":"markets","inputs":[{"name":"","type":"uint256","internalType":"uint256"}],"outputs":[{"name":"betTitle","type":"string","internalType":"string"},{"name":"description","type":"string","internalType":"string"},{"name":"betDeadline","type":"uint256","internalType":"uint256"},{"name":"resolutionDeadline","type":"uint256","internalType":"uint256"},{"name":"creator","type":"address","internalType":"address"},{"name":"resolved","type":"bool","internalType":"bool"},{"name":"totalPool","type":"uint256","internalType":"uint256"},{"name":"winningOutcome","type":"string","internalType":"string"},{"name":"paid","type":"bool","internalType":"bool"},{"name":"category","type":"uint8","internalType":"enum QuintusMarket.MarketCategory"},{"name":"marketCreated","type":"bool","internalType":"bool"}],"stateMutability":"view"},{"type":"function","name":"oracle","inputs":[],"outputs":[{"name":"","type":"address","internalType":"contract QuintusOracles"}],"stateMutability":"view"},{"type":"function","name":"owner","inputs":[],"outputs":[{"name":"","type":"address","internalType":"address"}],"stateMutability":"view"},{"type":"function","name":"placeBet","inputs":[{"name":"_marketId","type":"uint256","internalType":"uint256"},{"name":"_outcome","type":"string","internalType":"string"}],"outputs":[],"stateMutability":"payable"},{"type":"function","name":"renounceOwnership","inputs":[],"outputs":[],"stateMutability":"nonpayable"},{"type":"function","name":"resolveBet","inputs":[{"name":"_marketId","type":"uint256","internalType":"uint256"},{"name":"_outcome","type":"string","internalType":"string"}],"outputs":[],"stateMutability":"nonpayable"},{"type":"function","name":"resolveMarket","inputs":[{"name":"_marketId","type":"uint256","internalType":"uint256"}],"outputs":[],"stateMutability":"nonpayable"},{"type":"function","name":"transferOwnership","inputs":[{"name":"newOwner","type":"address","internalType":"address"}],"outputs":[],"stateMutability":"nonpayable"},{"type":"function","name":"userBets","inputs":[{"name":"","type":"uint256","internalType":"uint256"},{"name":"","type":"address","internalType":"address"},{"name":"","type":"uint256","internalType":"uint256"}],"outputs":[{"name":"marketId","type":"uint256","internalType":"uint256"},{"name":"amount","type":"uint256","internalType":"uint256"},{"name":"outcome","type":"string","internalType":"string"},{"name":"status","type":"uint8","internalType":"enum QuintusMarket.BetStatus"}],"stateMutability":"view"},{"type":"event","name":"BetPlaced","inputs":[{"name":"marketId","type":"uint256","indexed":true,"internalType":"uint256"},{"name":"user","type":"address","indexed":false,"internalType":"address"},{"name":"outcome","type":"string","indexed":false,"internalType":"string"},{"name":"amount","type":"uint256","indexed":false,"internalType":"uint256"}],"anonymous":false},{"type":"event","name":"MarketCreated","inputs":[{"name":"marketId","type":"uint256","indexed":true,"internalType":"uint256"},{"name":"betTitle","type":"string","indexed":false,"internalType":"string"},{"name":"creator","type":"address","indexed":false,"internalType":"address"},{"name":"category","type":"uint8","indexed":false,"internalType":"enum QuintusMarket.MarketCategory"}],"anonymous":false},{"type":"event","name":"MarketReadyForResolution","inputs":[{"name":"marketId","type":"uint256","indexed":true,"internalType":"uint256"},{"name":"betTitle","type":"string","indexed":false,"internalType":"string"},{"name":"outcomes","type":"string[]","indexed":false,"internalType":"string[]"},{"name":"totalPool","type":"uint256","indexed":false,"internalType":"uint256"},{"name":"creator","type":"address","indexed":false,"internalType":"address"},{"name":"category","type":"uint8","indexed":false,"internalType":"enum QuintusMarket.MarketCategory"}],"anonymous":false},{"type":"event","name":"MarketResolved","inputs":[{"name":"marketId","type":"uint256","indexed":true,"internalType":"uint256"},{"name":"winningOutcome","type":"string","indexed":false,"internalType":"string"}],"anonymous":false},{"type":"event","name":"OwnershipTransferred","inputs":[{"name":"previousOwner","type":"address","indexed":true,"internalType":"address"},{"name":"newOwner","type":"address","indexed":true,"internalType":"address"}],"anonymous":false},{"type":"event","name":"WinningsClaimed","inputs":[{"name":"marketId","type":"uint256","indexed":true,"internalType":"uint256"},{"name":"user","type":"address","indexed":false,"internalType":"address"},{"name":"amount","type":"uint256","indexed":false,"internalType":"uint256"}],"anonymous":false},{"type":"error","name":"AlreadyPaid","inputs":[]},{"type":"error","name":"BettingAmountCannotBeZero","inputs":[]},{"type":"error","name":"BettingDeadlinePassed","inputs":[]},{"type":"error","name":"InsufficientFee","inputs":[]},{"type":"error","name":"InsufficientOutcomes","inputs":[]},{"type":"error","name":"InvalidBetDeadline","inputs":[]},{"type":"error","name":"InvalidOutcome","inputs":[]},{"type":"error","name":"InvalidResolutionDeadline","inputs":[]},{"type":"error","name":"MarketAlreadyResolved","inputs":[]},{"type":"error","name":"MarketNotCreated","inputs":[]},{"type":"error","name":"MarketNotResolved","inputs":[]},{"type":"error","name":"NoBetsOnWinningOutcome","inputs":[]},{"type":"error","name":"NoExistingBets","inputs":[]},{"type":"error","name":"NoWinningsToClaim","inputs":[]},{"type":"error","name":"OwnableInvalidOwner","inputs":[{"name":"owner","type":"address","internalType":"address"}]},{"type":"error","name":"OwnableUnauthorizedAccount","inputs":[{"name":"account","type":"address","internalType":"address"}]},{"type":"error","name":"ReentrancyGuardReentrantCall","inputs":[]},{"type":"error","name":"TooEarlyToResolve","inputs":[]},{"type":"error","name":"TransferFailed","inputs":[]},{"type":"error","name":"UnauthorizedOracle","inputs":[]}],"bytecode":{"object":"0x60a0346100d357601f61232038819003918201601f19168301916001600160401b038311848410176100d8578084926020946040528339810103126100d357516001600160a01b0390818116908190036100d35733156100ba576000543360018060a01b0319821617600055604051923391167f8be0079c531659141344cd1fd0a4f28419497f9722a3daafe3b4186f6b6457e0600080a36001805560805261223190816100ef82396080518181816102ec015261084d0152f35b604051631e4fbdf760e01b815260006004820152602490fd5b600080fd5b634e487b7160e01b600052604160045260246000fdfe608080604052600436101561001357600080fd5b60003560e01c9081630a6f89811461189e575080631a7dfa9f1461188257806325bad4041461127957806334fbc9a11461125d5780633ec79193146111245780635e8af73514610e0257806361c4cc1514610d545780636399d03d14610bf7578063677bd9ff146108d5578063715018a61461087c5780637dc0d1d014610837578063873f6f9e146107ea5780638da5cb5b146107c1578063b0772d0b146105ea578063b1283e77146104c9578063b8d64c61146102db578063cafe698214610244578063ec97908214610226578063f2fde38b146101965763f83e87db146100fb57600080fd5b346101915761010936611a3f565b9060005260036020526101256040600020916006830190611d02565b5490811561017f5760070154908115610174576064810281810460640361015e5760409261015291611d28565b82519182526020820152f35b634e487b7160e01b600052601160045260246000fd5b604091506000610152565b60405163716351d760e01b8152600490fd5b600080fd5b34610191576020366003190112610191576004356001600160a01b0381811691829003610191576101c5611bbd565b811561020d57600054826bffffffffffffffffffffffff60a01b821617600055167f8be0079c531659141344cd1fd0a4f28419497f9722a3daafe3b4186f6b6457e0600080a3005b604051631e4fbdf760e01b815260006004820152602490fd5b34610191576000366003190112610191576020600254604051908152f35b346101915760031960203682011261019157600435906001600160401b03908183116101915760809083360301126101915760405191610283836118be565b80600401358352602481013560208401526044810135918211610191576102b260649260043691840101611930565b60408401520135600381101561019157816102d39160606020940152611d48565b604051908152f35b34610191576102e936611a3f565b907f00000000000000000000000000000000000000000000000000000000000000006001600160a01b031633036104b757806000526020916003835260406000206008810182516001600160401b0381116104a1576103488254611ab9565b601f8111610466575b5085601f82116001146103dc5791817f2ec1f84b4079525f1ab2216f53a16f520efec75c91c517667151e55bbea7b9ec969794926004946000916103d1575b508160011b916000199060031b1c19161790555b01805460ff60a01b1916600160a01b1790556040518181529182916103cc91908301906119b1565b0390a2005b905086015189610390565b601f1982169083600052876000209160005b81811061044f57509260049492600192827f2ec1f84b4079525f1ab2216f53a16f520efec75c91c517667151e55bbea7b9ec9a9b989610610436575b5050811b0190556103a4565b88015160001960f88460031b161c19169055898061042a565b91928960018192868b0151815501940192016103ee565b610491908360005287600020601f840160051c810191898510610497575b601f0160051c0190611c19565b86610351565b9091508190610484565b634e487b7160e01b600052604160045260246000fd5b60405163db8d1fb760e01b8152600490fd5b34610191576020366003190112610191576004356000526003602052610577604060002060405190610506826104ff8184611af3565b03836118f4565b60ff6105bb60405192610527846105208160018501611af3565b03856118f4565b600281015490600381015484600483015460078401549261058560096040519661055f886105588160088501611af3565b03896118f4565b0154996040519c8d9c8d6101609081815201906119b1565b8c810360208e0152906119b1565b9560408b015260608a015260018060a01b03811660808a015260a01c16151560a088015260c087015285820360e08701526119b1565b9181811615156101008501526105da6101208501838360081c16611a32565b60101c1615156101408301520390f35b3461019157600036600319011261019157610603611f22565b9799989660409691969592949395519a8b9a610160808d528c0161062691611b89565b986020998c8b81830391015261063b916119d6565b8b810360408d015261064c916119d6565b8a810360608c015261065d91611b89565b89810360808b015261066e91611b89565b88810360a08a015286808351928381520192019060005b8181106107a15750505087810360c089015285808351928381520192019060005b8181106107885750505086810360e088015282518082528582019186808360051b8301019501926000915b838310610750575050505050816106f49187610703959403610100890152611b89565b908582036101208701526119d6565b83810361014085015281808451928381520193019160005b82811061072a57505050500390f35b9193839550908082610740600194839751611a32565b019501910191859493919261071b565b9193969780809a9b50610772600193959798601f198682030187528a516119d6565b98019301930190928a99989796959492936106d1565b8251151584528a995092870192918701916001016106a6565b82516001600160a01b031684528b9a509288019291880191600101610685565b34610191576000366003190112610191576000546040516001600160a01b039091168152602090f35b3461019157604036600319011261019157610803611a71565b600435600052600560205260406000209060018060a01b0316600052602052602060ff604060002054166040519015158152f35b34610191576000366003190112610191576040517f00000000000000000000000000000000000000000000000000000000000000006001600160a01b03168152602090f35b3461019157600036600319011261019157610895611bbd565b600080546001600160a01b0319811682556001600160a01b03167f8be0079c531659141344cd1fd0a4f28419497f9722a3daafe3b4186f6b6457e08280a3005b346101915760208060031936011261019157600435906108f3611c50565b8160005260038082526040600020600481019060ff9081835460a01c1615610be557856000526005855260406000203360005285528160406000205416610bd357600881019360405186816109488189611c73565b6006860181520301902054918215610bc15760070154906000958860005260048852604060002033600052885260406000209182549560005b878110610ab3578b8b8b8b8115610aa157601982029180830460190361015e576103e880930492600a820290828204600a0361015e576000856109d582956109d0849695859604938492611c43565b611c43565b968983526005895260408320338452895260408320600160ff198254161790558280808060018060a01b0394858254165af196610a10611be9565b5054165af190610a1e611be9565b50600080808086335af190610a31611be9565b5015918215610a98575b508115610a8f575b50610a7d577f5380cf6fe903b40c6d5a9e0dfbca2f3a423f0a21520b4d5947ed5169bdba946d91604091825191338352820152a260018055005b6040516312171d8360e31b8152600490fd5b90501584610a43565b15915085610a3b565b604051634519bd6360e01b8152600490fd5b8183610abf8388611a87565b5001541683811015610bab5715610ad9575b600101610981565b98610ae48a86611a87565b506040518c810181610afa826002809601611c73565b0391610b0e601f19938481018352826118f4565b519020908d610b346040519182019282610b28858c611c73565b039081018352826118f4565b51902003610b8a5750610b81600191610b7b89610b768a8f610b6e8a610b5a838f611a87565b5001805460ff19168a17905588918d611a87565b500154611c30565b611d28565b90611cf5565b995b9050610ad1565b996001919a84610b9a8389611a87565b50019060ff19825416179055610b83565b634e487b7160e01b600052602160045260246000fd5b60405163d4d1c7b160e01b8152600490fd5b604051630d70a0e360e41b8152600490fd5b60405163174b639360e11b8152600490fd5b346101915760208060031936011261019157600435610c14611c50565b80600052600382526040600020600981015460ff8160101c1615610d425760038201544210610d3057600482015460ff8160a01c16610d1e576005830194600784015490610c6d6040519560a0875260a0870190611af3565b908582038187015287549081835280830192818360051b8201019960005281600020936000915b848310610cf1578a7f22bd5d5321ce9d1d634d90214f1258550ca0eaeba44c74c521e4ea27d8007d0f8b808f610ce88e8e8e604086015260018060a01b0316606085015260ff608085019160081c16611a32565b0390a260018055005b90919293949a846001610d0e81938f601f19878303018852611af3565b9d01930193019194939290610c94565b60405163aa43cb2d60e01b8152600490fd5b604051630fce133d60e01b8152600490fd5b6040516396e1352960e01b8152600490fd5b3461019157606036600319011261019157610d6d611a71565b60443590600435600052600460205260406000209060018060a01b0316600052602052604060002090815481101561019157610da891611a87565b50805490610dee60018201549160ff600360405192610dce846105208160028501611af3565b0154169260405194855260208501526080604085015260808401906119b1565b6003821015610bab57829160608301520390f35b610e0b36611a3f565b90610e14611c50565b80600052602091600383526040600020600254831015610d425760ff600482015460a01c16610d1e5760028101544210156111135734156111015760006005820180549060005b82811061108a575b50505015611078576006816007610e899301610e80348254611cf5565b90550182611d02565b610e94348254611cf5565b90558160005260048352604060002033600052835260406000209260405190610ebc826118be565b83825280820191348352604081018481526060820193600085528754600160401b8110156104a157610ef5906001998a82018155611a87565b93909361106257518355518783015551805160028301916001600160401b0382116104a157610f248354611ab9565b601f8111611032575b508490601f8311600114610fcb5760039493929160009183610fc0575b505060001982861b1c191690891b1790555b0191516003811015610bab577ffabf9d34f9bf696c17fd04bafbdc4f74840410108fc5db3f77ea5f0815edc73693606093610fb39260ff8019835416911617905560405193849333855284015260608301906119b1565b3460408301520390a28055005b015190508a80610f4a565b9392918991601f1982169084600052876000209160005b8982821061101c575050968360039810611004575b505050811b019055610f5c565b015160001983881b60f8161c191690558a8080610ff7565b838a015185558e96909401939283019201610fe2565b61105c908460005286600020601f850160051c81019188861061049757601f0160051c0190611c19565b89610f2d565b634e487b7160e01b600052600060045260246000fd5b60405163c74a206d60e01b8152600490fd5b816000528088600020016040516110b6816110a88c82018095611c73565b03601f1981018352826118f4565b519020604051898101906110e38b82816110d68d8781519384920161198e565b81010380845201826118f4565b519020146110f357600101610e5b565b505050506001858080610e63565b604051633dc8218f60e11b8152600490fd5b60405162543af960e41b8152600490fd5b34610191576020366003190112610191576004356000526003602052604060002060098101549060ff8260101c1615610d42576111b79161125961124783600861123360026111f497015460038401549360ff600482015460078301549661120260405161119d816111968189611af3565b03826118f4565b6040519e8f806111b08160018b01611af3565b03906118f4565b6111de6111c660058801611ebd565b966111d7604051809c819301611af3565b038a6118f4565b6040519e8f9e8f926101408085528401906119b1565b9160208184039101526119b1565b9460408d015260608c015260018060a01b03811660808c015260a01c16151560a08a015288820360c08a01526119d6565b9160e08701528582036101008701526119b1565b9160ff61012085019160081c16611a32565b0390f35b3461019157600036600319011261019157602060405160198152f35b60c0366003190112610191576004356001600160401b038111610191576112a4903690600401611930565b6024356001600160401b038111610191576112c3903690600401611930565b6084356001600160401b0381116101915736602382011215610191578060040135906112ee82611977565b906112fc60405192836118f4565b82825260208201906024829460051b820101903682116101915760248101925b8284106118535750505050600560a43510156101915761133a611c50565b42604435111561184257604435606435111561183057600281511061181e57662386f26fc1000080341061180d5760008080809360018060a01b038254165af1611382611be9565b5015610a7d57600254600019811461015e5760018101600255600052600360205260406000209284516001600160401b0381116104a1576113c38554611ab9565b601f81116117db575b50806020601f821160011461177457600091611769575b508160011b916000199060031b1c19161784555b8051906001600160401b0382116104a15781906114176001870154611ab9565b601f8111611734575b50602090601f83116001146116c2576000926116b7575b50508160011b916000199060031b1c19161760018401555b604435600284015560643560038401556004830180546001600160a01b031916331790555190600160401b82116104a157600583015482600585015580831061163f575b5090600583016000526020600020916000905b82821061152a5760098501805462ffff00191660a43560081b61ff001617620100001790556002546000198101908790821161015e576115157f06d87b89e7940705d41ad9741832374ef202320451e21252ed0a64e963891e3d916040519182916060835260608301906119b1565b336020830152610ce86040830160a435611a32565b80518051906001600160401b0382116104a1576115478654611ab9565b601f811161160d575b50602090601f831160011461159d579282600194936020938695600092611592575b5050600019600383901b1c191690841b1787555b019401910190926114a6565b015190508b80611572565b908660005260206000209160005b601f19851681106115f5575083602093600196938796938794601f198116106115dc575b505050811b018755611586565b015160001960f88460031b161c191690558b80806115cf565b919260206001819286850151815501940192016115ab565b61163990876000526020600020601f850160051c8101916020861061049757601f0160051c0190611c19565b88611550565b600584016000526020600020908382015b8183018110611660575050611493565b8061166d60019254611ab9565b8061167a575b5001611650565b601f811183146116905750600081555b88611673565b6000908282526116ae601f60208420920160051c8201858301611c19565b8183555561168a565b015190508680611437565b9250600186016000526020600020906000935b601f1984168510611719576001945083601f19811610611700575b505050811b01600184015561144f565b015160001960f88460031b161c191690558680806116f0565b818101518355602094850194600190930192909101906116d5565b61176390600188016000526020600020601f850160051c8101916020861061049757601f0160051c0190611c19565b87611420565b9050860151876113e3565b91508560005260206000206000925b601f19831684106117c3576001935082601f198116106117aa575b5050811b0184556113f7565b88015160001960f88460031b161c19169055878061179e565b88810151825560209384019360019092019101611783565b61180790866000526020600020601f840160051c8101916020851061049757601f0160051c0190611c19565b866113cc565b60405162976f7560e21b8152600490fd5b6040516337c4dd8b60e01b8152600490fd5b6040516322aaf0ed60e21b8152600490fd5b604051629f70e560e61b8152600490fd5b83356001600160401b03811161019157602091611877839260243691870101611930565b81520193019261131c565b34610191576000366003190112610191576020604051600a8152f35b346101915760003660031901126101915780662386f26fc1000060209252f35b608081019081106001600160401b038211176104a157604052565b602081019081106001600160401b038211176104a157604052565b90601f801991011681019081106001600160401b038211176104a157604052565b6001600160401b0381116104a157601f01601f191660200190565b81601f820112156101915780359061194782611915565b9261195560405194856118f4565b8284526020838301011161019157816000926020809301838601378301015290565b6001600160401b0381116104a15760051b60200190565b60005b8381106119a15750506000910152565b8181015183820152602001611991565b906020916119ca8151809281855285808601910161198e565b601f01601f1916010190565b908082519081815260208091019281808460051b8301019501936000915b848310611a045750505050505090565b9091929394958480611a22600193601f198682030187528a516119b1565b98019301930191949392906119f4565b906005821015610bab5752565b9060406003198301126101915760043591602435906001600160401b03821161019157611a6e91600401611930565b90565b602435906001600160a01b038216820361019157565b8054821015611aa35760005260206000209060021b0190600090565b634e487b7160e01b600052603260045260246000fd5b90600182811c92168015611ae9575b6020831014611ad357565b634e487b7160e01b600052602260045260246000fd5b91607f1691611ac8565b9060009291805491611b0483611ab9565b918282526001938481169081600014611b665750600114611b26575b50505050565b90919394506000526020928360002092846000945b838610611b52575050505001019038808080611b20565b805485870183015294019385908201611b3b565b9294505050602093945060ff191683830152151560051b01019038808080611b20565b90815180825260208080930193019160005b828110611ba9575050505090565b835185529381019392810192600101611b9b565b6000546001600160a01b03163303611bd157565b60405163118cdaa760e01b8152336004820152602490fd5b3d15611c14573d90611bfa82611915565b91611c0860405193846118f4565b82523d6000602084013e565b606090565b818110611c24575050565b60008155600101611c19565b8181029291811591840414171561015e57565b9190820391821161015e57565b600260015414611c61576002600155565b604051633ee5aeb560e01b8152600490fd5b600092918154611c8281611ab9565b92600191808316908115611cda5750600114611c9e5750505050565b90919293945060005260209081600020906000915b858310611cc95750505050019038808080611b20565b805485840152918301918101611cb3565b60ff1916845250505081151590910201915038808080611b20565b9190820180921161015e57565b602090611d1c92826040519483868095519384920161198e565b82019081520301902090565b8115611d32570490565b634e487b7160e01b600052601260045260246000fd5b6000906000908051825260036020526040822060ff600982015460101c1615610d425760608201516003811015611e1957611e1257611d8e600682016040840151611d02565b549182611d9d575b5050505090565b611db79394509060076020610b7693015191015490611c30565b6019810291811590828404601914821715611dfe57600a830291838304600a141715611dfe5750611df592916109d0916103e8809104930490611c43565b38808080611d96565b634e487b7160e01b81526011600452602490fd5b5050905090565b634e487b7160e01b84526021600452602484fd5b90611e3782611977565b611e4460405191826118f4565b8281528092611e55601f1991611977565b0190602036910137565b90611e6982611977565b611e7660405191826118f4565b8281528092611e87601f1991611977565b019060005b828110611e9857505050565b806060602080938501015201611e8c565b8051821015611aa35760209160051b010190565b908154611ec981611977565b92604093611ed9855191826118f4565b828152809460208092019260005281600020906000935b858510611eff57505050505050565b60018481928451611f1481611196818a611af3565b815201930194019391611ef0565b6002805491821561213e57611f3683611e2d565b92611f4081611e5f565b92611f4a82611e5f565b92611f5483611e2d565b92611f5e81611e2d565b92611f6882611e2d565b92611f7283611e2d565b92611f7c81611e5f565b92611f8682611e2d565b92611f9083611e5f565b92611f9a81611e2d565b9260005b828110611faa57505050565b889e9d9c9b9a99988e8a8f8f8f8f9092878094819482600052600393846020528360409a8b60002099611fdc91611ea9565b52838a5180611feb818c611af3565b03611ff690826118f4565b6120008284611ea9565b5261200a91611ea9565b50885183908061201d8160018c01611af3565b0361202890826118f4565b6120328284611ea9565b5261203c91611ea9565b508a8601549161204b91611ea9565b528301549161205991611ea9565b526004818101549094909286906001600160a01b0385169061207c908390611ea9565b5261208691611ea9565b60ff809360a01c161515905260078101546120a1868d611ea9565b526005928c866120b2848701611ebd565b6120bc8284611ea9565b526120c691611ea9565b505160089190806120d981858501611af3565b036120e490826118f4565b6120ee878d611ea9565b526120f9868c611ea9565b5060090154901c169161210c8489611ea9565b918310156121295750906001929152019d9798999a9b9c9d611f9e565b602190634e487b7160e01b6000525260246000fd5b915050604090815190612150826118d9565b600091828152835193612162856118d9565b838552805193612171856118d9565b808552815193612180856118d9565b81855282519361218f856118d9565b82855283519361219e856118d9565b8385528051936121ad856118d9565b8085528151936121bc856118d9565b8185528251936121cb856118d9565b8285528351936121da856118d9565b83855251926121e8846118d9565b8084523681379a9998979695949392919056fea26469706673582212204d6b91a379ad553ff4b92eed8bcfe75b3b059a5adcde1178d9df9939aa59197964736f6c63430008140033","linkReferences":{}},"methodIdentifiers":{"CREATOR_FEE()":"1a7dfa9f","MARKET_CREATION_FEE()":"0a6f8981","PLATFORM_FEE()":"34fbc9a1","calculateBetWinnings((uint256,uint256,string,uint8))":"cafe6982","claimWinnings(uint256)":"677bd9ff","createMarket(string,string,uint256,uint256,string[],uint8)":"25bad404","getAllMarkets()":"b0772d0b","getMarketBets(uint256,string)":"f83e87db","getMarketInfo(uint256)":"3ec79193","hasClaimed(uint256,address)":"873f6f9e","marketCount()":"ec979082","markets(uint256)":"b1283e77","oracle()":"7dc0d1d0","owner()":"8da5cb5b","placeBet(uint256,string)":"5e8af735","renounceOwnership()":"715018a6","resolveBet(uint256,string)":"b8d64c61","resolveMarket(uint256)":"6399d03d","transferOwnership(address)":"f2fde38b","userBets(uint256,address,uint256)":"61c4cc15"},"id":28}