{"abi":[{"type":"constructor","inputs":[{"name":"_oracle","type":"address","internalType":"address"}],"stateMutability":"nonpayable"},{"type":"function","name":"CREATOR_FEE","inputs":[],"outputs":[{"name":"","type":"uint256","internalType":"uint256"}],"stateMutability":"view"},{"type":"function","name":"MARKET_CREATION_FEE","inputs":[],"outputs":[{"name":"","type":"uint256","internalType":"uint256"}],"stateMutability":"view"},{"type":"function","name":"PLATFORM_FEE","inputs":[],"outputs":[{"name":"","type":"uint256","internalType":"uint256"}],"stateMutability":"view"},{"type":"function","name":"calculatePotentialWinnings","inputs":[{"name":"_marketId","type":"uint256","internalType":"uint256"},{"name":"_bettor","type":"address","internalType":"address"},{"name":"_outcome","type":"string","internalType":"string"}],"outputs":[{"name":"betWinnings","type":"uint256[]","internalType":"uint256[]"}],"stateMutability":"view"},{"type":"function","name":"claimWinnings","inputs":[{"name":"_marketId","type":"uint256","internalType":"uint256"}],"outputs":[],"stateMutability":"nonpayable"},{"type":"function","name":"createMarket","inputs":[{"name":"_betTitle","type":"string","internalType":"string"},{"name":"_description","type":"string","internalType":"string"},{"name":"_betDeadline","type":"uint256","internalType":"uint256"},{"name":"_resolutionDeadline","type":"uint256","internalType":"uint256"},{"name":"_outcomes","type":"string[]","internalType":"string[]"},{"name":"_category","type":"uint8","internalType":"enum QuintusMarket.MarketCategory"}],"outputs":[],"stateMutability":"payable"},{"type":"function","name":"getAllMarkets","inputs":[],"outputs":[{"name":"marketIds","type":"uint256[]","internalType":"uint256[]"},{"name":"betTitles","type":"string[]","internalType":"string[]"},{"name":"descriptions","type":"string[]","internalType":"string[]"},{"name":"betDeadlines","type":"uint256[]","internalType":"uint256[]"},{"name":"resolutionDeadlines","type":"uint256[]","internalType":"uint256[]"},{"name":"creators","type":"address[]","internalType":"address[]"},{"name":"resolved","type":"bool[]","internalType":"bool[]"},{"name":"outcomes","type":"string[][]","internalType":"string[][]"},{"name":"totalPools","type":"uint256[]","internalType":"uint256[]"},{"name":"winningOutcomes","type":"string[]","internalType":"string[]"},{"name":"categories","type":"uint8[]","internalType":"enum QuintusMarket.MarketCategory[]"}],"stateMutability":"view"},{"type":"function","name":"getMarketBets","inputs":[{"name":"_marketId","type":"uint256","internalType":"uint256"},{"name":"_outcome","type":"string","internalType":"string"}],"outputs":[{"name":"totalBetsForOutcome","type":"uint256","internalType":"uint256"},{"name":"outcomeWeight","type":"uint256","internalType":"uint256"}],"stateMutability":"view"},{"type":"function","name":"getMarketInfo","inputs":[{"name":"_marketId","type":"uint256","internalType":"uint256"}],"outputs":[{"name":"betTitle","type":"string","internalType":"string"},{"name":"description","type":"string","internalType":"string"},{"name":"betDeadline","type":"uint256","internalType":"uint256"},{"name":"resolutionDeadline","type":"uint256","internalType":"uint256"},{"name":"creator","type":"address","internalType":"address"},{"name":"resolved","type":"bool","internalType":"bool"},{"name":"outcomes","type":"string[]","internalType":"string[]"},{"name":"totalPool","type":"uint256","internalType":"uint256"},{"name":"winningOutcome","type":"string","internalType":"string"},{"name":"category","type":"uint8","internalType":"enum QuintusMarket.MarketCategory"}],"stateMutability":"view"},{"type":"function","name":"hasClaimed","inputs":[{"name":"","type":"uint256","internalType":"uint256"},{"name":"","type":"address","internalType":"address"}],"outputs":[{"name":"","type":"bool","internalType":"bool"}],"stateMutability":"view"},{"type":"function","name":"marketCount","inputs":[],"outputs":[{"name":"","type":"uint256","internalType":"uint256"}],"stateMutability":"view"},{"type":"function","name":"markets","inputs":[{"name":"","type":"uint256","internalType":"uint256"}],"outputs":[{"name":"betTitle","type":"string","internalType":"string"},{"name":"description","type":"string","internalType":"string"},{"name":"betDeadline","type":"uint256","internalType":"uint256"},{"name":"resolutionDeadline","type":"uint256","internalType":"uint256"},{"name":"creator","type":"address","internalType":"address"},{"name":"resolved","type":"bool","internalType":"bool"},{"name":"totalPool","type":"uint256","internalType":"uint256"},{"name":"winningOutcome","type":"string","internalType":"string"},{"name":"paid","type":"bool","internalType":"bool"},{"name":"category","type":"uint8","internalType":"enum QuintusMarket.MarketCategory"},{"name":"marketCreated","type":"bool","internalType":"bool"}],"stateMutability":"view"},{"type":"function","name":"oracle","inputs":[],"outputs":[{"name":"","type":"address","internalType":"contract QuintusOracles"}],"stateMutability":"view"},{"type":"function","name":"owner","inputs":[],"outputs":[{"name":"","type":"address","internalType":"address"}],"stateMutability":"view"},{"type":"function","name":"placeBet","inputs":[{"name":"_marketId","type":"uint256","internalType":"uint256"},{"name":"_outcome","type":"string","internalType":"string"}],"outputs":[],"stateMutability":"payable"},{"type":"function","name":"renounceOwnership","inputs":[],"outputs":[],"stateMutability":"nonpayable"},{"type":"function","name":"resolveBet","inputs":[{"name":"_marketId","type":"uint256","internalType":"uint256"},{"name":"_outcome","type":"string","internalType":"string"}],"outputs":[],"stateMutability":"nonpayable"},{"type":"function","name":"resolveMarket","inputs":[{"name":"_marketId","type":"uint256","internalType":"uint256"}],"outputs":[],"stateMutability":"nonpayable"},{"type":"function","name":"transferOwnership","inputs":[{"name":"newOwner","type":"address","internalType":"address"}],"outputs":[],"stateMutability":"nonpayable"},{"type":"function","name":"userBets","inputs":[{"name":"","type":"uint256","internalType":"uint256"},{"name":"","type":"address","internalType":"address"},{"name":"","type":"uint256","internalType":"uint256"}],"outputs":[{"name":"marketId","type":"uint256","internalType":"uint256"},{"name":"amount","type":"uint256","internalType":"uint256"},{"name":"outcome","type":"string","internalType":"string"},{"name":"status","type":"uint8","internalType":"enum QuintusMarket.BetStatus"}],"stateMutability":"view"},{"type":"event","name":"BetPlaced","inputs":[{"name":"marketId","type":"uint256","indexed":true,"internalType":"uint256"},{"name":"user","type":"address","indexed":false,"internalType":"address"},{"name":"outcome","type":"string","indexed":false,"internalType":"string"},{"name":"amount","type":"uint256","indexed":false,"internalType":"uint256"}],"anonymous":false},{"type":"event","name":"MarketCreated","inputs":[{"name":"marketId","type":"uint256","indexed":true,"internalType":"uint256"},{"name":"betTitle","type":"string","indexed":false,"internalType":"string"},{"name":"creator","type":"address","indexed":false,"internalType":"address"},{"name":"category","type":"uint8","indexed":false,"internalType":"enum QuintusMarket.MarketCategory"}],"anonymous":false},{"type":"event","name":"MarketReadyForResolution","inputs":[{"name":"marketId","type":"uint256","indexed":true,"internalType":"uint256"},{"name":"betTitle","type":"string","indexed":false,"internalType":"string"},{"name":"outcomes","type":"string[]","indexed":false,"internalType":"string[]"},{"name":"totalPool","type":"uint256","indexed":false,"internalType":"uint256"},{"name":"creator","type":"address","indexed":false,"internalType":"address"},{"name":"category","type":"uint8","indexed":false,"internalType":"enum QuintusMarket.MarketCategory"}],"anonymous":false},{"type":"event","name":"MarketResolved","inputs":[{"name":"marketId","type":"uint256","indexed":true,"internalType":"uint256"},{"name":"winningOutcome","type":"string","indexed":false,"internalType":"string"}],"anonymous":false},{"type":"event","name":"OwnershipTransferred","inputs":[{"name":"previousOwner","type":"address","indexed":true,"internalType":"address"},{"name":"newOwner","type":"address","indexed":true,"internalType":"address"}],"anonymous":false},{"type":"event","name":"WinningsClaimed","inputs":[{"name":"marketId","type":"uint256","indexed":true,"internalType":"uint256"},{"name":"user","type":"address","indexed":false,"internalType":"address"},{"name":"amount","type":"uint256","indexed":false,"internalType":"uint256"}],"anonymous":false},{"type":"error","name":"AlreadyPaid","inputs":[]},{"type":"error","name":"BettingAmountCannotBeZero","inputs":[]},{"type":"error","name":"BettingDeadlinePassed","inputs":[]},{"type":"error","name":"InsufficientFee","inputs":[]},{"type":"error","name":"InsufficientOutcomes","inputs":[]},{"type":"error","name":"InvalidBetDeadline","inputs":[]},{"type":"error","name":"InvalidOutcome","inputs":[]},{"type":"error","name":"InvalidResolutionDeadline","inputs":[]},{"type":"error","name":"MarketAlreadyResolved","inputs":[]},{"type":"error","name":"MarketNotCreated","inputs":[]},{"type":"error","name":"MarketNotResolved","inputs":[]},{"type":"error","name":"NoBetsOnWinningOutcome","inputs":[]},{"type":"error","name":"NoExistingBets","inputs":[]},{"type":"error","name":"NoWinningsToClaim","inputs":[]},{"type":"error","name":"OwnableInvalidOwner","inputs":[{"name":"owner","type":"address","internalType":"address"}]},{"type":"error","name":"OwnableUnauthorizedAccount","inputs":[{"name":"account","type":"address","internalType":"address"}]},{"type":"error","name":"ReentrancyGuardReentrantCall","inputs":[]},{"type":"error","name":"TooEarlyToResolve","inputs":[]},{"type":"error","name":"TransferFailed","inputs":[]},{"type":"error","name":"UnauthorizedOracle","inputs":[]}],"bytecode":{"object":"0x60a0346100d357601f61233838819003918201601f19168301916001600160401b038311848410176100d8578084926020946040528339810103126100d357516001600160a01b0390818116908190036100d35733156100ba576000543360018060a01b0319821617600055604051923391167f8be0079c531659141344cd1fd0a4f28419497f9722a3daafe3b4186f6b6457e0600080a36001805560805261224990816100ef823960805181818161025501526107b60152f35b604051631e4fbdf760e01b815260006004820152602490fd5b600080fd5b634e487b7160e01b600052604160045260246000fdfe608080604052600436101561001357600080fd5b60003560e01c9081630a6f8981146119b6575080631a7dfa9f1461199a57806325bad4041461139157806334fbc9a1146113755780633ec7919314611240578063575d10691461109a5780635e8af73514610d6b57806361c4cc1514610cbd5780636399d03d14610b60578063677bd9ff1461083e578063715018a6146107e55780637dc0d1d0146107a0578063873f6f9e146107535780638da5cb5b1461072a578063b0772d0b14610553578063b1283e7714610432578063b8d64c6114610244578063ec97908214610226578063f2fde38b146101965763f83e87db146100fb57600080fd5b346101915761010936611b86565b9060005260036020526101256040600020916006830190611dff565b5490811561017f5760070154908115610174576064810281810460640361015e5760409261015291611e25565b82519182526020820152f35b634e487b7160e01b600052601160045260246000fd5b604091506000610152565b60405163716351d760e01b8152600490fd5b600080fd5b34610191576020366003190112610191576004356001600160a01b0381811691829003610191576101c5611cba565b811561020d57600054826bffffffffffffffffffffffff60a01b821617600055167f8be0079c531659141344cd1fd0a4f28419497f9722a3daafe3b4186f6b6457e0600080a3005b604051631e4fbdf760e01b815260006004820152602490fd5b34610191576000366003190112610191576020600254604051908152f35b346101915761025236611b86565b907f00000000000000000000000000000000000000000000000000000000000000006001600160a01b0316330361042057806000526020916003835260406000206008810182516001600160401b03811161040a576102b18254611bea565b601f81116103cf575b5085601f82116001146103455791817f2ec1f84b4079525f1ab2216f53a16f520efec75c91c517667151e55bbea7b9ec9697949260049460009161033a575b508160011b916000199060031b1c19161790555b01805460ff60a01b1916600160a01b1790556040518181529182916103359190830190611aae565b0390a2005b9050860151896102f9565b601f1982169083600052876000209160005b8181106103b857509260049492600192827f2ec1f84b4079525f1ab2216f53a16f520efec75c91c517667151e55bbea7b9ec9a9b98961061039f575b5050811b01905561030d565b88015160001960f88460031b161c191690558980610393565b91928960018192868b015181550194019201610357565b6103fa908360005287600020601f840160051c810191898510610400575b601f0160051c0190611d16565b866102ba565b90915081906103ed565b634e487b7160e01b600052604160045260246000fd5b60405163db8d1fb760e01b8152600490fd5b346101915760203660031901126101915760043560005260036020526104e060406000206040519061046f826104688184611c24565b03836119f1565b60ff61052460405192610490846104898160018501611c24565b03856119f1565b60028101549060038101548460048301546007840154926104ee6009604051966104c8886104c18160088501611c24565b03896119f1565b0154996040519c8d9c8d610160908181520190611aae565b8c810360208e015290611aae565b9560408b015260608a015260018060a01b03811660808a015260a01c16151560a088015260c087015285820360e0870152611aae565b9181811615156101008501526105436101208501838360081c16611b2f565b60101c1615156101408301520390f35b346101915760003660031901126101915761056c611f3a565b9799989660409691969592949395519a8b9a610160808d528c0161058f91611b52565b986020998c8b8183039101526105a491611ad3565b8b810360408d01526105b591611ad3565b8a810360608c01526105c691611b52565b89810360808b01526105d791611b52565b88810360a08a015286808351928381520192019060005b81811061070a5750505087810360c089015285808351928381520192019060005b8181106106f15750505086810360e088015282518082528582019186808360051b8301019501926000915b8383106106b95750505050508161065d918761066c959403610100890152611b52565b90858203610120870152611ad3565b83810361014085015281808451928381520193019160005b82811061069357505050500390f35b91938395509080826106a9600194839751611b2f565b0195019101918594939192610684565b9193969780809a9b506106db600193959798601f198682030187528a51611ad3565b98019301930190928a999897969594929361063a565b8251151584528a9950928701929187019160010161060f565b82516001600160a01b031684528b9a5092880192918801916001016105ee565b34610191576000366003190112610191576000546040516001600160a01b039091168152602090f35b346101915760403660031901126101915761076c611b3c565b600435600052600560205260406000209060018060a01b0316600052602052602060ff604060002054166040519015158152f35b34610191576000366003190112610191576040517f00000000000000000000000000000000000000000000000000000000000000006001600160a01b03168152602090f35b34610191576000366003190112610191576107fe611cba565b600080546001600160a01b0319811682556001600160a01b03167f8be0079c531659141344cd1fd0a4f28419497f9722a3daafe3b4186f6b6457e08280a3005b3461019157602080600319360112610191576004359061085c611d4d565b8160005260038082526040600020600481019060ff9081835460a01c1615610b4e57856000526005855260406000203360005285528160406000205416610b3c57600881019360405186816108b18189611d70565b6006860181520301902054918215610b2a5760070154906000958860005260048852604060002033600052885260406000209182549560005b878110610a1c578b8b8b8b8115610a0a57601982029180830460190361015e576103e880930492600a820290828204600a0361015e5760008561093e8295610939849695859604938492611d40565b611d40565b968983526005895260408320338452895260408320600160ff198254161790558280808060018060a01b0394858254165af196610979611ce6565b5054165af190610987611ce6565b50600080808086335af19061099a611ce6565b5015918215610a01575b5081156109f8575b506109e6577f5380cf6fe903b40c6d5a9e0dfbca2f3a423f0a21520b4d5947ed5169bdba946d91604091825191338352820152a260018055005b6040516312171d8360e31b8152600490fd5b905015846109ac565b159150856109a4565b604051634519bd6360e01b8152600490fd5b8183610a288388611bb8565b5001541683811015610b145715610a42575b6001016108ea565b98610a4d8a86611bb8565b506040518c810181610a63826002809601611d70565b0391610a77601f19938481018352826119f1565b519020908d610a9d6040519182019282610a91858c611d70565b039081018352826119f1565b51902003610af35750610aea600191610ae489610adf8a8f610ad78a610ac3838f611bb8565b5001805460ff19168a17905588918d611bb8565b500154611d2d565b611e25565b90611df2565b995b9050610a3a565b996001919a84610b038389611bb8565b50019060ff19825416179055610aec565b634e487b7160e01b600052602160045260246000fd5b60405163d4d1c7b160e01b8152600490fd5b604051630d70a0e360e41b8152600490fd5b60405163174b639360e11b8152600490fd5b346101915760208060031936011261019157600435610b7d611d4d565b80600052600382526040600020600981015460ff8160101c1615610cab5760038201544210610c9957600482015460ff8160a01c16610c87576005830194600784015490610bd66040519560a0875260a0870190611c24565b908582038187015287549081835280830192818360051b8201019960005281600020936000915b848310610c5a578a7f22bd5d5321ce9d1d634d90214f1258550ca0eaeba44c74c521e4ea27d8007d0f8b808f610c518e8e8e604086015260018060a01b0316606085015260ff608085019160081c16611b2f565b0390a260018055005b90919293949a846001610c7781938f601f19878303018852611c24565b9d01930193019194939290610bfd565b60405163aa43cb2d60e01b8152600490fd5b604051630fce133d60e01b8152600490fd5b6040516396e1352960e01b8152600490fd5b3461019157606036600319011261019157610cd6611b3c565b60443590600435600052600460205260406000209060018060a01b0316600052602052604060002090815481101561019157610d1191611bb8565b50805490610d5760018201549160ff600360405192610d37846104898160028501611c24565b015416926040519485526020850152608060408501526080840190611aae565b6003821015610b1457829160608301520390f35b610d7436611b86565b90610d7d611d4d565b80600052602091600383526040600020600254831015610cab5760ff600482015460a01c16610c875760028101544210156110895734156110775760006005820180549060005b828110611000575b50505015610fee576006816007610df29301610de9348254611df2565b90550182611dff565b610dfd348254611df2565b9055816000526004835260406000203360005283526040600020926040519060808201916001600160401b03928181108482111761040a576040528481528181019234845260408201908582526060830194600086528854600160401b81101561040a57610e729060019a8b82018155611bb8565b949094610fd8575184555188840155600283019151805191821161040a57610e9a8354611bea565b601f8111610fa8575b508490601f8311600114610f415760039493929160009183610f36575b505060001982861b1c191690891b1790555b0191516003811015610b14577ffabf9d34f9bf696c17fd04bafbdc4f74840410108fc5db3f77ea5f0815edc73693606093610f299260ff801983541691161790556040519384933385528401526060830190611aae565b3460408301520390a28055005b015190508a80610ec0565b9392918991601f1982169084600052876000209160005b89828210610f92575050968360039810610f7a575b505050811b019055610ed2565b015160001983881b60f8161c191690558a8080610f6d565b838a015185558e96909401939283019201610f58565b610fd2908460005286600020601f850160051c81019188861061040057601f0160051c0190611d16565b89610ea3565b634e487b7160e01b600052600060045260246000fd5b60405163c74a206d60e01b8152600490fd5b8160005280886000200160405161102c8161101e8c82018095611d70565b03601f1981018352826119f1565b519020604051898101906110598b828161104c8d87815193849201611a8b565b81010380845201826119f1565b5190201461106957600101610dc4565b505050506001858080610dcc565b604051633dc8218f60e11b8152600490fd5b60405162543af960e41b8152600490fd5b34610191576060366003190112610191576004356110b6611b3c565b6044356001600160401b038111610191576110d5903690600401611a2d565b8260005260039260209284845260406000209060ff9283600984015460101c1615610cab576000526004855260406000209060018060a01b0316600052845260406000209182549361112685611e45565b966111346006850183611dff565b549485611153575b6040518881528061114f818b018c611b52565b0390f35b60005b878110611163575061113c565b61116d8183611bb8565b508584820154169084821015610b1457889115806111fe575b611195575b5050600101611156565b90610adf60016111ac93015460078a015490611d2d565b906019918281028115938282041484171561015e57600a938483029483860414171561015e576109396111ea926001956103e8809104930490611d40565b6111f4828d611e77565b529050868b61118b565b506040518b8101906112178161101e8460028701611d70565b5190208b60405161123782820192828161104c8d87815193849201611a8b565b51902014611186565b34610191576020366003190112610191576004356000526003602052604060002060098101549060ff8260101c1615610cab576112d39161114f61136383600861134f600261131097015460038401549360ff600482015460078301549661131e6040516112b9816112b28189611c24565b03826119f1565b6040519e8f806112cc8160018b01611c24565b03906119f1565b6112fa6112e260058801611ed5565b966112f3604051809c819301611c24565b038a6119f1565b6040519e8f9e8f92610140808552840190611aae565b916020818403910152611aae565b9460408d015260608c015260018060a01b03811660808c015260a01c16151560a08a015288820360c08a0152611ad3565b9160e0870152858203610100870152611aae565b9160ff61012085019160081c16611b2f565b3461019157600036600319011261019157602060405160198152f35b60c0366003190112610191576004356001600160401b038111610191576113bc903690600401611a2d565b6024356001600160401b038111610191576113db903690600401611a2d565b6084356001600160401b03811161019157366023820112156101915780600401359061140682611a74565b9061141460405192836119f1565b82825260208201906024829460051b820101903682116101915760248101925b82841061196b5750505050600560a435101561019157611452611d4d565b42604435111561195a57604435606435111561194857600281511061193657662386f26fc100008034106119255760008080809360018060a01b038254165af161149a611ce6565b50156109e657600254600019811461015e5760018101600255600052600360205260406000209284516001600160401b03811161040a576114db8554611bea565b601f81116118f3575b50806020601f821160011461188c57600091611881575b508160011b916000199060031b1c19161784555b8051906001600160401b03821161040a57819061152f6001870154611bea565b601f811161184c575b50602090601f83116001146117da576000926117cf575b50508160011b916000199060031b1c19161760018401555b604435600284015560643560038401556004830180546001600160a01b031916331790555190600160401b821161040a576005830154826005850155808310611757575b5090600583016000526020600020916000905b8282106116425760098501805462ffff00191660a43560081b61ff001617620100001790556002546000198101908790821161015e5761162d7f06d87b89e7940705d41ad9741832374ef202320451e21252ed0a64e963891e3d91604051918291606083526060830190611aae565b336020830152610c516040830160a435611b2f565b80518051906001600160401b03821161040a5761165f8654611bea565b601f8111611725575b50602090601f83116001146116b55792826001949360209386956000926116aa575b5050600019600383901b1c191690841b1787555b019401910190926115be565b015190508b8061168a565b908660005260206000209160005b601f198516811061170d575083602093600196938796938794601f198116106116f4575b505050811b01875561169e565b015160001960f88460031b161c191690558b80806116e7565b919260206001819286850151815501940192016116c3565b61175190876000526020600020601f850160051c8101916020861061040057601f0160051c0190611d16565b88611668565b600584016000526020600020908382015b81830181106117785750506115ab565b8061178560019254611bea565b80611792575b5001611768565b601f811183146117a85750600081555b8861178b565b6000908282526117c6601f60208420920160051c8201858301611d16565b818355556117a2565b01519050868061154f565b9250600186016000526020600020906000935b601f1984168510611831576001945083601f19811610611818575b505050811b016001840155611567565b015160001960f88460031b161c19169055868080611808565b818101518355602094850194600190930192909101906117ed565b61187b90600188016000526020600020601f850160051c8101916020861061040057601f0160051c0190611d16565b87611538565b9050860151876114fb565b91508560005260206000206000925b601f19831684106118db576001935082601f198116106118c2575b5050811b01845561150f565b88015160001960f88460031b161c1916905587806118b6565b8881015182556020938401936001909201910161189b565b61191f90866000526020600020601f840160051c8101916020851061040057601f0160051c0190611d16565b866114e4565b60405162976f7560e21b8152600490fd5b6040516337c4dd8b60e01b8152600490fd5b6040516322aaf0ed60e21b8152600490fd5b604051629f70e560e61b8152600490fd5b83356001600160401b0381116101915760209161198f839260243691870101611a2d565b815201930192611434565b34610191576000366003190112610191576020604051600a8152f35b346101915760003660031901126101915780662386f26fc1000060209252f35b602081019081106001600160401b0382111761040a57604052565b90601f801991011681019081106001600160401b0382111761040a57604052565b6001600160401b03811161040a57601f01601f191660200190565b81601f8201121561019157803590611a4482611a12565b92611a5260405194856119f1565b8284526020838301011161019157816000926020809301838601378301015290565b6001600160401b03811161040a5760051b60200190565b60005b838110611a9e5750506000910152565b8181015183820152602001611a8e565b90602091611ac781518092818552858086019101611a8b565b601f01601f1916010190565b908082519081815260208091019281808460051b8301019501936000915b848310611b015750505050505090565b9091929394958480611b1f600193601f198682030187528a51611aae565b9801930193019194939290611af1565b906005821015610b145752565b602435906001600160a01b038216820361019157565b90815180825260208080930193019160005b828110611b72575050505090565b835185529381019392810192600101611b64565b9060406003198301126101915760043591602435906001600160401b03821161019157611bb591600401611a2d565b90565b8054821015611bd45760005260206000209060021b0190600090565b634e487b7160e01b600052603260045260246000fd5b90600182811c92168015611c1a575b6020831014611c0457565b634e487b7160e01b600052602260045260246000fd5b91607f1691611bf9565b9060009291805491611c3583611bea565b918282526001938481169081600014611c975750600114611c57575b50505050565b90919394506000526020928360002092846000945b838610611c83575050505001019038808080611c51565b805485870183015294019385908201611c6c565b9294505050602093945060ff191683830152151560051b01019038808080611c51565b6000546001600160a01b03163303611cce57565b60405163118cdaa760e01b8152336004820152602490fd5b3d15611d11573d90611cf782611a12565b91611d0560405193846119f1565b82523d6000602084013e565b606090565b818110611d21575050565b60008155600101611d16565b8181029291811591840414171561015e57565b9190820391821161015e57565b600260015414611d5e576002600155565b604051633ee5aeb560e01b8152600490fd5b600092918154611d7f81611bea565b92600191808316908115611dd75750600114611d9b5750505050565b90919293945060005260209081600020906000915b858310611dc65750505050019038808080611c51565b805485840152918301918101611db0565b60ff1916845250505081151590910201915038808080611c51565b9190820180921161015e57565b602090611e19928260405194838680955193849201611a8b565b82019081520301902090565b8115611e2f570490565b634e487b7160e01b600052601260045260246000fd5b90611e4f82611a74565b611e5c60405191826119f1565b8281528092611e6d601f1991611a74565b0190602036910137565b8051821015611bd45760209160051b010190565b90611e9582611a74565b611ea260405191826119f1565b8281528092611eb3601f1991611a74565b019060005b828110611ec457505050565b806060602080938501015201611eb8565b908154611ee181611a74565b92604093611ef1855191826119f1565b828152809460208092019260005281600020906000935b858510611f1757505050505050565b60018481928451611f2c816112b2818a611c24565b815201930194019391611f08565b6002805491821561215657611f4e83611e45565b92611f5881611e8b565b92611f6282611e8b565b92611f6c83611e45565b92611f7681611e45565b92611f8082611e45565b92611f8a83611e45565b92611f9481611e8b565b92611f9e82611e45565b92611fa883611e8b565b92611fb281611e45565b9260005b828110611fc257505050565b889e9d9c9b9a99988e8a8f8f8f8f9092878094819482600052600393846020528360409a8b60002099611ff491611e77565b52838a5180612003818c611c24565b0361200e90826119f1565b6120188284611e77565b5261202291611e77565b5088518390806120358160018c01611c24565b0361204090826119f1565b61204a8284611e77565b5261205491611e77565b508a8601549161206391611e77565b528301549161207191611e77565b526004818101549094909286906001600160a01b03851690612094908390611e77565b5261209e91611e77565b60ff809360a01c161515905260078101546120b9868d611e77565b526005928c866120ca848701611ed5565b6120d48284611e77565b526120de91611e77565b505160089190806120f181858501611c24565b036120fc90826119f1565b612106878d611e77565b52612111868c611e77565b5060090154901c16916121248489611e77565b918310156121415750906001929152019d9798999a9b9c9d611fb6565b602190634e487b7160e01b6000525260246000fd5b915050604090815190612168826119d6565b60009182815283519361217a856119d6565b838552805193612189856119d6565b808552815193612198856119d6565b8185528251936121a7856119d6565b8285528351936121b6856119d6565b8385528051936121c5856119d6565b8085528151936121d4856119d6565b8185528251936121e3856119d6565b8285528351936121f2856119d6565b8385525192612200846119d6565b8084523681379a9998979695949392919056fea2646970667358221220021a5f7fb0e78bcc43f4b0ab24384cfc48b99733961bf28d9acc3e5248f28dd364736f6c63430008140033","linkReferences":{}},"methodIdentifiers":{"CREATOR_FEE()":"1a7dfa9f","MARKET_CREATION_FEE()":"0a6f8981","PLATFORM_FEE()":"34fbc9a1","calculatePotentialWinnings(uint256,address,string)":"575d1069","claimWinnings(uint256)":"677bd9ff","createMarket(string,string,uint256,uint256,string[],uint8)":"25bad404","getAllMarkets()":"b0772d0b","getMarketBets(uint256,string)":"f83e87db","getMarketInfo(uint256)":"3ec79193","hasClaimed(uint256,address)":"873f6f9e","marketCount()":"ec979082","markets(uint256)":"b1283e77","oracle()":"7dc0d1d0","owner()":"8da5cb5b","placeBet(uint256,string)":"5e8af735","renounceOwnership()":"715018a6","resolveBet(uint256,string)":"b8d64c61","resolveMarket(uint256)":"6399d03d","transferOwnership(address)":"f2fde38b","userBets(uint256,address,uint256)":"61c4cc15"},"id":28}