{
    "abi": [
        {
            "type": "constructor",
            "inputs": [
                {
                    "name": "_oracle",
                    "type": "address",
                    "internalType": "address"
                }
            ],
            "stateMutability": "nonpayable"
        },
        {
            "type": "function",
            "name": "CREATOR_FEE",
            "inputs": [],
            "outputs": [
                {
                    "name": "",
                    "type": "uint256",
                    "internalType": "uint256"
                }
            ],
            "stateMutability": "view"
        },
        {
            "type": "function",
            "name": "MARKET_CREATION_FEE",
            "inputs": [],
            "outputs": [
                {
                    "name": "",
                    "type": "uint256",
                    "internalType": "uint256"
                }
            ],
            "stateMutability": "view"
        },
        {
            "type": "function",
            "name": "PLATFORM_FEE",
            "inputs": [],
            "outputs": [
                {
                    "name": "",
                    "type": "uint256",
                    "internalType": "uint256"
                }
            ],
            "stateMutability": "view"
        },
        {
            "type": "function",
            "name": "claimWinnings",
            "inputs": [
                {
                    "name": "_marketId",
                    "type": "uint256",
                    "internalType": "uint256"
                }
            ],
            "outputs": [],
            "stateMutability": "nonpayable"
        },
        {
            "type": "function",
            "name": "createMarket",
            "inputs": [
                {
                    "name": "_betTitle",
                    "type": "string",
                    "internalType": "string"
                },
                {
                    "name": "_description",
                    "type": "string",
                    "internalType": "string"
                },
                {
                    "name": "_betDeadline",
                    "type": "uint256",
                    "internalType": "uint256"
                },
                {
                    "name": "_resolutionDeadline",
                    "type": "uint256",
                    "internalType": "uint256"
                },
                {
                    "name": "_outcomes",
                    "type": "string[]",
                    "internalType": "string[]"
                },
                {
                    "name": "_category",
                    "type": "uint8",
                    "internalType": "enum QuintusMarket.MarketCategory"
                }
            ],
            "outputs": [],
            "stateMutability": "payable"
        },
        {
            "type": "function",
            "name": "getAllMarkets",
            "inputs": [],
            "outputs": [
                {
                    "name": "marketIds",
                    "type": "uint256[]",
                    "internalType": "uint256[]"
                },
                {
                    "name": "betTitles",
                    "type": "string[]",
                    "internalType": "string[]"
                },
                {
                    "name": "descriptions",
                    "type": "string[]",
                    "internalType": "string[]"
                },
                {
                    "name": "betDeadlines",
                    "type": "uint256[]",
                    "internalType": "uint256[]"
                },
                {
                    "name": "resolutionDeadlines",
                    "type": "uint256[]",
                    "internalType": "uint256[]"
                },
                {
                    "name": "creators",
                    "type": "address[]",
                    "internalType": "address[]"
                },
                {
                    "name": "resolved",
                    "type": "bool[]",
                    "internalType": "bool[]"
                },
                {
                    "name": "outcomes",
                    "type": "string[][]",
                    "internalType": "string[][]"
                },
                {
                    "name": "winningOutcomes",
                    "type": "string[]",
                    "internalType": "string[]"
                },
                {
                    "name": "categories",
                    "type": "uint8[]",
                    "internalType": "enum QuintusMarket.MarketCategory[]"
                }
            ],
            "stateMutability": "view"
        },
        {
            "type": "function",
            "name": "getMarketBets",
            "inputs": [
                {
                    "name": "_marketId",
                    "type": "uint256",
                    "internalType": "uint256"
                },
                {
                    "name": "_outcome",
                    "type": "string",
                    "internalType": "string"
                }
            ],
            "outputs": [
                {
                    "name": "",
                    "type": "uint256",
                    "internalType": "uint256"
                }
            ],
            "stateMutability": "view"
        },
        {
            "type": "function",
            "name": "getMarketInfo",
            "inputs": [
                {
                    "name": "_marketId",
                    "type": "uint256",
                    "internalType": "uint256"
                }
            ],
            "outputs": [
                {
                    "name": "betTitle",
                    "type": "string",
                    "internalType": "string"
                },
                {
                    "name": "description",
                    "type": "string",
                    "internalType": "string"
                },
                {
                    "name": "betDeadline",
                    "type": "uint256",
                    "internalType": "uint256"
                },
                {
                    "name": "resolutionDeadline",
                    "type": "uint256",
                    "internalType": "uint256"
                },
                {
                    "name": "creator",
                    "type": "address",
                    "internalType": "address"
                },
                {
                    "name": "resolved",
                    "type": "bool",
                    "internalType": "bool"
                },
                {
                    "name": "outcomes",
                    "type": "string[]",
                    "internalType": "string[]"
                },
                {
                    "name": "winningOutcome",
                    "type": "string",
                    "internalType": "string"
                },
                {
                    "name": "category",
                    "type": "uint8",
                    "internalType": "enum QuintusMarket.MarketCategory"
                }
            ],
            "stateMutability": "view"
        },
        {
            "type": "function",
            "name": "marketCount",
            "inputs": [],
            "outputs": [
                {
                    "name": "",
                    "type": "uint256",
                    "internalType": "uint256"
                }
            ],
            "stateMutability": "view"
        },
        {
            "type": "function",
            "name": "markets",
            "inputs": [
                {
                    "name": "",
                    "type": "uint256",
                    "internalType": "uint256"
                }
            ],
            "outputs": [
                {
                    "name": "betTitle",
                    "type": "string",
                    "internalType": "string"
                },
                {
                    "name": "description",
                    "type": "string",
                    "internalType": "string"
                },
                {
                    "name": "betDeadline",
                    "type": "uint256",
                    "internalType": "uint256"
                },
                {
                    "name": "resolutionDeadline",
                    "type": "uint256",
                    "internalType": "uint256"
                },
                {
                    "name": "creator",
                    "type": "address",
                    "internalType": "address"
                },
                {
                    "name": "resolved",
                    "type": "bool",
                    "internalType": "bool"
                },
                {
                    "name": "totalPool",
                    "type": "uint256",
                    "internalType": "uint256"
                },
                {
                    "name": "winningOutcome",
                    "type": "string",
                    "internalType": "string"
                },
                {
                    "name": "paid",
                    "type": "bool",
                    "internalType": "bool"
                },
                {
                    "name": "category",
                    "type": "uint8",
                    "internalType": "enum QuintusMarket.MarketCategory"
                },
                {
                    "name": "marketCreated",
                    "type": "bool",
                    "internalType": "bool"
                }
            ],
            "stateMutability": "view"
        },
        {
            "type": "function",
            "name": "oracle",
            "inputs": [],
            "outputs": [
                {
                    "name": "",
                    "type": "address",
                    "internalType": "contract QuintusOracles"
                }
            ],
            "stateMutability": "view"
        },
        {
            "type": "function",
            "name": "owner",
            "inputs": [],
            "outputs": [
                {
                    "name": "",
                    "type": "address",
                    "internalType": "address"
                }
            ],
            "stateMutability": "view"
        },
        {
            "type": "function",
            "name": "placeBet",
            "inputs": [
                {
                    "name": "_marketId",
                    "type": "uint256",
                    "internalType": "uint256"
                },
                {
                    "name": "_outcome",
                    "type": "string",
                    "internalType": "string"
                }
            ],
            "outputs": [],
            "stateMutability": "payable"
        },
        {
            "type": "function",
            "name": "renounceOwnership",
            "inputs": [],
            "outputs": [],
            "stateMutability": "nonpayable"
        },
        {
            "type": "function",
            "name": "resolveBet",
            "inputs": [
                {
                    "name": "_marketId",
                    "type": "uint256",
                    "internalType": "uint256"
                },
                {
                    "name": "_outcome",
                    "type": "string",
                    "internalType": "string"
                }
            ],
            "outputs": [],
            "stateMutability": "nonpayable"
        },
        {
            "type": "function",
            "name": "resolveMarket",
            "inputs": [
                {
                    "name": "_marketId",
                    "type": "uint256",
                    "internalType": "uint256"
                }
            ],
            "outputs": [],
            "stateMutability": "nonpayable"
        },
        {
            "type": "function",
            "name": "transferOwnership",
            "inputs": [
                {
                    "name": "newOwner",
                    "type": "address",
                    "internalType": "address"
                }
            ],
            "outputs": [],
            "stateMutability": "nonpayable"
        },
        {
            "type": "function",
            "name": "userBets",
            "inputs": [
                {
                    "name": "",
                    "type": "uint256",
                    "internalType": "uint256"
                },
                {
                    "name": "",
                    "type": "address",
                    "internalType": "address"
                },
                {
                    "name": "",
                    "type": "uint256",
                    "internalType": "uint256"
                }
            ],
            "outputs": [
                {
                    "name": "amount",
                    "type": "uint256",
                    "internalType": "uint256"
                },
                {
                    "name": "outcome",
                    "type": "string",
                    "internalType": "string"
                },
                {
                    "name": "status",
                    "type": "uint8",
                    "internalType": "enum QuintusMarket.BetStatus"
                },
                {
                    "name": "potentialWinnings",
                    "type": "uint256",
                    "internalType": "uint256"
                }
            ],
            "stateMutability": "view"
        },
        {
            "type": "event",
            "name": "BetPlaced",
            "inputs": [
                {
                    "name": "marketId",
                    "type": "uint256",
                    "indexed": true,
                    "internalType": "uint256"
                },
                {
                    "name": "user",
                    "type": "address",
                    "indexed": false,
                    "internalType": "address"
                },
                {
                    "name": "outcome",
                    "type": "string",
                    "indexed": false,
                    "internalType": "string"
                },
                {
                    "name": "amount",
                    "type": "uint256",
                    "indexed": false,
                    "internalType": "uint256"
                }
            ],
            "anonymous": false
        },
        {
            "type": "event",
            "name": "MarketCreated",
            "inputs": [
                {
                    "name": "marketId",
                    "type": "uint256",
                    "indexed": true,
                    "internalType": "uint256"
                },
                {
                    "name": "betTitle",
                    "type": "string",
                    "indexed": false,
                    "internalType": "string"
                },
                {
                    "name": "creator",
                    "type": "address",
                    "indexed": false,
                    "internalType": "address"
                },
                {
                    "name": "category",
                    "type": "uint8",
                    "indexed": false,
                    "internalType": "enum QuintusMarket.MarketCategory"
                }
            ],
            "anonymous": false
        },
        {
            "type": "event",
            "name": "MarketResolved",
            "inputs": [
                {
                    "name": "marketId",
                    "type": "uint256",
                    "indexed": true,
                    "internalType": "uint256"
                },
                {
                    "name": "winningOutcome",
                    "type": "string",
                    "indexed": false,
                    "internalType": "string"
                }
            ],
            "anonymous": false
        },
        {
            "type": "event",
            "name": "OwnershipTransferred",
            "inputs": [
                {
                    "name": "previousOwner",
                    "type": "address",
                    "indexed": true,
                    "internalType": "address"
                },
                {
                    "name": "newOwner",
                    "type": "address",
                    "indexed": true,
                    "internalType": "address"
                }
            ],
            "anonymous": false
        },
        {
            "type": "event",
            "name": "WinningsClaimed",
            "inputs": [
                {
                    "name": "marketId",
                    "type": "uint256",
                    "indexed": true,
                    "internalType": "uint256"
                },
                {
                    "name": "user",
                    "type": "address",
                    "indexed": false,
                    "internalType": "address"
                },
                {
                    "name": "amount",
                    "type": "uint256",
                    "indexed": false,
                    "internalType": "uint256"
                }
            ],
            "anonymous": false
        },
        {
            "type": "error",
            "name": "BettingAmountCannotBeZero",
            "inputs": []
        },
        {
            "type": "error",
            "name": "BettingDeadlinePassed",
            "inputs": []
        },
        {
            "type": "error",
            "name": "InsufficientFee",
            "inputs": []
        },
        {
            "type": "error",
            "name": "InsufficientOutcomes",
            "inputs": []
        },
        {
            "type": "error",
            "name": "InvalidBetDeadline",
            "inputs": []
        },
        {
            "type": "error",
            "name": "InvalidOutcome",
            "inputs": []
        },
        {
            "type": "error",
            "name": "InvalidResolutionDeadline",
            "inputs": []
        },
        {
            "type": "error",
            "name": "MarketAlreadyResolved",
            "inputs": []
        },
        {
            "type": "error",
            "name": "MarketNotCreated",
            "inputs": []
        },
        {
            "type": "error",
            "name": "MarketNotResolved",
            "inputs": []
        },
        {
            "type": "error",
            "name": "NoBetsOnWinningOutcome",
            "inputs": []
        },
        {
            "type": "error",
            "name": "NoWinningsToClaim",
            "inputs": []
        },
        {
            "type": "error",
            "name": "OwnableInvalidOwner",
            "inputs": [
                {
                    "name": "owner",
                    "type": "address",
                    "internalType": "address"
                }
            ]
        },
        {
            "type": "error",
            "name": "OwnableUnauthorizedAccount",
            "inputs": [
                {
                    "name": "account",
                    "type": "address",
                    "internalType": "address"
                }
            ]
        },
        {
            "type": "error",
            "name": "ReentrancyGuardReentrantCall",
            "inputs": []
        },
        {
            "type": "error",
            "name": "TooEarlyToResolve",
            "inputs": []
        },
        {
            "type": "error",
            "name": "TransferFailed",
            "inputs": []
        },
        {
            "type": "error",
            "name": "UnauthorizedOracle",
            "inputs": []
        }
    ],
    "bytecode": {
        "object": "0x60a0346100da57601f61219b38819003918201601f19168301916001600160401b038311848410176100df578084926020946040528339810103126100da57516001600160a01b0390818116908190036100da5733156100c1576000543360018060a01b0319821617600055604051923391167f8be0079c531659141344cd1fd0a4f28419497f9722a3daafe3b4186f6b6457e0600080a3600180556080526120a590816100f682396080518181816101e1015281816106ce0152610b8b0152f35b604051631e4fbdf760e01b815260006004820152602490fd5b600080fd5b634e487b7160e01b600052604160045260246000fdfe608080604052600436101561001357600080fd5b600090813560e01c9081630a6f8981146117f0575080631a7dfa9f146117d457806325bad404146111d457806334fbc9a1146111b85780633ec79193146110a15780635e8af73514610d4057806361c4cc1514610c705780636399d03d14610a33578063677bd9ff14610757578063715018a6146106fd5780637dc0d1d0146106b85780638da5cb5b14610691578063b0772d0b146104d3578063b1283e77146103b3578063b8d64c61146101d0578063ec979082146101b2578063f2fde38b1461011b5763f83e87db146100e757600080fd5b346101185761010f602091600660406100ff366119a3565b9390815260038652200190611c5d565b54604051908152f35b80fd5b5034610118576020366003190112610118576004356001600160a01b03818116918290036101ad5761014b611b0b565b811561019457600054826bffffffffffffffffffffffff60a01b821617600055167f8be0079c531659141344cd1fd0a4f28419497f9722a3daafe3b4186f6b6457e0600080a380f35b604051631e4fbdf760e01b815260048101849052602490fd5b600080fd5b50346101185780600319360112610118576020600254604051908152f35b5034610118576101df366119a3565b7f00000000000000000000000000000000000000000000000000000000000000006001600160a01b031633036103a157818352602060038152604084206008810183516001600160401b03811161038d5761023a8254611a07565b601f8111610354575b5083601f82116001146102ce5791817f2ec1f84b4079525f1ab2216f53a16f520efec75c91c517667151e55bbea7b9ec969594926004948a916102c3575b508160011b916000199060031b1c19161790555b01805460ff60a01b1916600160a01b1790556040518181529182916102bd91908301906118ff565b0390a280f35b905086015138610281565b82885284882090601f198316895b81811061033d57509260049492600192827f2ec1f84b4079525f1ab2216f53a16f520efec75c91c517667151e55bbea7b9ec9a99989610610324575b5050811b019055610295565b88015160001960f88460031b161c191690553880610318565b91928760018192868c0151815501940192016102dc565b61037d90838952858920601f840160051c810191878510610383575b601f0160051c0190611b5c565b38610243565b9091508190610370565b634e487b7160e01b87526041600452602487fd5b60405163db8d1fb760e01b8152600490fd5b5034610118576020366003190112610118576040610460916004358152600360205220604051906103ef826103e88184611a41565b0383611842565b60ff6104a460405192610410846104098160018501611a41565b0385611842565b600281015490600381015484600483015460078401549261046e600960405196610448886104418160088501611a41565b0389611842565b0154996040519c8d9c8d6101609081815201906118ff565b8c810360208e0152906118ff565b9560408b015260608a015260018060a01b03811660808a015260a01c16151560a088015260c087015285820360e08701526118ff565b9181811615156101008501526104c36101208501838360081c16611980565b60101c1615156101408301520390f35b50346101185780600319360112610118576104ec611dc8565b979560409a979a9591949295519a8b9a610140808d528c0161050d91611ad7565b976020988c8a81830391015261052291611924565b8b810360408d015261053391611924565b8a810360608c015261054491611ad7565b89810360808b015261055591611ad7565b88810360a08a0152858083519283815201920190875b8181106106715750505087810360c0890152848083519283815201920190865b8181106106585750505086810360e088015282518082528482019185808360051b83010195019287915b838310610620575050505050906105d491868203610100880152611924565b908482036101208601528080855193848152019401925b8281106105fa57505050500390f35b9193839550908082610610600194839751611980565b01950191019185949391926105eb565b9193968080999a9b50610642600193959798601f198682030187528a51611924565b98019301930190928a99989796959492936105b5565b8251151584528a9950928601929186019160010161058b565b82516001600160a01b031684528b9a50928701929187019160010161056b565b5034610118578060031936011261011857546040516001600160a01b039091168152602090f35b50346101185780600319360112610118576040517f00000000000000000000000000000000000000000000000000000000000000006001600160a01b03168152602090f35b5034610118578060031936011261011857610716611b0b565b600080546001600160a01b0319811682556001600160a01b03167f8be0079c531659141344cd1fd0a4f28419497f9722a3daafe3b4186f6b6457e08280a380f35b503461011857602080600319360112610a2f5760043590610776611b93565b818352600380825260408420600481019060ff9283835460a01c1615610a1d57600882019360405186816107aa8189611bce565b6006870181520301902054928315610a0b5760070154948895888a526004885260408a203360005288526040600020918254948b5b868110610918578c8c8c8c8c81156109065760198202918083046019036108f2576103e880930492600a8202828104600a036108de578785610831829561082c8496859604938492611b86565b611b86565b968280808060018060a01b0394858254165af19661084d611ca3565b5054165af19061085b611ca3565b508580808086335af19061086d611ca3565b50159182156108d5575b5081156108cc575b506108ba577f5380cf6fe903b40c6d5a9e0dfbca2f3a423f0a21520b4d5947ed5169bdba946d91604091825191338352820152a26001805580f35b6040516312171d8360e31b8152600490fd5b9050158561087f565b15915086610877565b634e487b7160e01b88526011600452602488fd5b634e487b7160e01b86526011600452602486fd5b604051634519bd6360e01b8152600490fd5b61092281866119d5565b508660028092015416838110156109f7571580610991575b610948575b506001016107df565b819a6109848a61097f886109788761098a9761096660019a8f6119d5565b5001805460ff19168a1790558c6119d5565b5054611b73565b611c83565b90611c50565b999061093f565b5061099c82876119d5565b5060018d6109b4604051938492830193849101611bce565b03916109c8601f1993848101835282611842565b519020908d6109ee60405191820192826109e2858b611bce565b03908101835282611842565b5190201461093a565b634e487b7160e01b8f52602160045260248ffd5b60405163d4d1c7b160e01b8152600490fd5b60405163174b639360e11b8152600490fd5b5080fd5b503461011857602080600319360112610a2f5760043590610a52611b93565b818352600381526040832060ff600982015460101c1615610c5e5760038101544210610c4c5760048101805460ff8160a01c16610c3a5760ff60a01b1916600160a01b179055600881018054909190610aaa90611a07565b15610b89575b60050180548591825b828110610b1b575b50505015610b09577f2ec1f84b4079525f1ab2216f53a16f520efec75c91c517667151e55bbea7b9ec91610aff604051928284938452830190611a41565b0390a26001805580f35b60405163c74a206d60e01b8152600490fd5b610b258183611bb6565b506040519081610b388982018093611bce565b0391610b4c601f1993848101835282611842565b51902090604051610b6589820192826109e2858c611bce565b51902014610b7b57610b7690611b37565b610ab9565b505050506001388080610ac1565b7f00000000000000000000000000000000000000000000000000000000000000006001600160a01b0316803b15610c365785604051809263b8d64c6160e01b825287600483015260406024830152818381610be7604482018a611a41565b03925af18015610c2b57610bfc575b50610ab0565b6001600160401b038196929611610c17576040529338610bf6565b634e487b7160e01b82526041600452602482fd5b6040513d88823e3d90fd5b8580fd5b60405163aa43cb2d60e01b8152600490fd5b604051630fce133d60e01b8152600490fd5b6040516396e1352960e01b8152600490fd5b5034610118576060366003190112610118576024356001600160a01b03811690819003610a2f5760443590600435835260046020526040832090835260205260408220908154811015610d3c57610cc6916119d5565b50805490604051610ce581610cde8160018601611a41565b0382611842565b610d0d600360ff600285015416930154916040519485526080602086015260808501906118ff565b916003811015610d2857839450604084015260608301520390f35b634e487b7160e01b85526021600452602485fd5b8280fd5b50610d4a366119a3565b90610d53611b93565b8083526020600381526040842060ff600482015460a01c16610c3a57600281015442101561109057341561107e578460058201805490875b828110611006575b50505015610b095780610de0610dd960066007610de7950193610db7348654611c50565b85550192610dc58489611c5d565b610dd0348254611c50565b90555434611b73565b9186611c5d565b5490611c83565b9282855260048252604085203386528252604085209360405190608082016001600160401b039083811082821117610ff2576040523483528483018481526040840191898352606085019384528854600160401b811015610fca57610e539060019a8b820181556119d5565b959095610fde5751855588850191518051918211610fca5781908b610e788554611a07565b8a601f8211610f9c575b5050508890601f8311600114610f3d578c92610f32575b5050600019600383901b1c191690891b1790555b6002830190516003811015610f1e57926003610f1093606096937ffabf9d34f9bf696c17fd04bafbdc4f74840410108fc5db3f77ea5f0815edc736989660ff801983541691161790555191015560405193849333855284015260608301906118ff565b3460408301520390a2805580f35b634e487b7160e01b89526021600452602489fd5b015190503880610e99565b848d52898d208c94509190601f1984168e5b8c828210610f865750508411610f6d575b505050811b019055610ead565b015160001960f88460031b161c19169055388080610f60565b8385015186558f97909501949384019301610f4f565b8287610fc2945220601f850160051c8101918c861061038357601f0160051c0190611b5c565b8b388a610e82565b634e487b7160e01b8b52604160045260248bfd5b634e487b7160e01b8b5260048b905260248bfd5b634e487b7160e01b89526041600452602489fd5b6110108183611bb6565b50604051611033816110258a82018095611bce565b03601f198101835282611842565b5190208860405161106089828161105381830196878151938492016118dc565b8101038084520182611842565b5190201461107057600101610d8b565b505050506001388080610d93565b604051633dc8218f60e11b8152600490fd5b60405162543af960e41b8152600490fd5b50346101185760203660031901126101185760406111559160043581526003602052206002810154906111b46111a2600861119460038501549560048601549560ff600982015497604051996111028b6110fb8187611a41565b038c611842565b61116360405161111981610cde8160018a01611a41565b61114061112860058801611d63565b96611139604051809c819301611a41565b038a611842565b6040519d8e9d8e6101209081815201906118ff565b8d810360208f0152906118ff565b9460408c015260608b015260018060a01b03811660808b015260a01c16151560a089015287820360c0890152611924565b9085820360e08701526118ff565b9160ff61010085019160081c16611980565b0390f35b5034610118578060031936011261011857602060405160198152f35b5060c0366003190112610118576004356001600160401b038111610a2f5761120090369060040161187e565b6024356001600160401b038111610d3c5761121f90369060040161187e565b6084356001600160401b0381116117d057366023820112156117d05780600401359061124a826118c5565b906112586040519283611842565b828252602082019260051b8101602401833682116117cc5760248301905b8282106117995750505050600560a435101561179557611294611b93565b42604435111561178457604435606435111561177257600281511061176057662386f26fc10000341061174f576002546112cd81611b37565b60025585526003602052604085209284516001600160401b03811161038d576112f68554611a07565b601f811161171f575b50806020601f82116001146116bb5788916116b0575b508160011b916000199060031b1c19161784555b8051906001600160401b03821161038d5781906113496001870154611a07565b601f811161167d575b50602090601f831160011461160e578892611603575b50508160011b916000199060031b1c19161760018401555b604435600284015560643560038401556004830180546001600160a01b031916331790555190600160401b82116115ef57600583015482600585015580831061157b575b506005830185526020852085915b83831061146c5760098501805462ffff00191660a43560081b61ff00161762010000179055600254879060001981019088908211611458576114437f06d87b89e7940705d41ad9741832374ef202320451e21252ed0a64e963891e3d916040519182916060835260608301906118ff565b336020830152610aff6040830160a435611980565b634e487b7160e01b83526011600452602483fd5b80518051906001600160401b038211610ff2576114898454611a07565b601f811161154b575b50602090601f83116001146114de5792826001949360209386958d926114d3575b5050600019600383901b1c191690841b1785555b019201920191906113d2565b0151905038806114b3565b90848a5260208a20918a5b601f1985168110611533575083602093600196938796938794601f1981161061151a575b505050811b0185556114c7565b015160001960f88460031b161c1916905538808061150d565b919260206001819286850151815501940192016114e9565b61157590858b5260208b20601f850160051c8101916020861061038357601f0160051c0190611b5c565b38611492565b60058401865260208620908382015b818301811061159a5750506113c4565b80886115a860019354611a07565b806115b6575b50500161158a565b601f811184146115cb575081555b88386115ae565b8282526115e6601f60208420920160051c8201858301611b5c565b818355556115c4565b634e487b7160e01b85526041600452602485fd5b015190503880611368565b9250600186018852602088209088935b601f1984168510611662576001945083601f19811610611649575b505050811b016001840155611380565b015160001960f88460031b161c19169055388080611639565b8181015183556020948501946001909301929091019061161e565b6116aa90600188018a5260208a20601f850160051c8101916020861061038357601f0160051c0190611b5c565b38611352565b905086015138611315565b91508588526020882088925b601f1983168410611707576001935082601f198116106116ee575b5050811b018455611329565b88015160001960f88460031b161c1916905538806116e2565b888101518255602093840193600190920191016116c7565b6117499086895260208920601f840160051c8101916020851061038357601f0160051c0190611b5c565b386112ff565b60405162976f7560e21b8152600490fd5b6040516337c4dd8b60e01b8152600490fd5b6040516322aaf0ed60e21b8152600490fd5b604051629f70e560e61b8152600490fd5b8480fd5b81356001600160401b0381116117c8576020916117bd83926024369189010161187e565b815201910190611276565b8980fd5b8780fd5b8380fd5b50346101185780600319360112610118576020604051600a8152f35b905034610a2f5781600319360112610a2f5780662386f26fc1000060209252f35b602081019081106001600160401b0382111761182c57604052565b634e487b7160e01b600052604160045260246000fd5b90601f801991011681019081106001600160401b0382111761182c57604052565b6001600160401b03811161182c57601f01601f191660200190565b81601f820112156101ad5780359061189582611863565b926118a36040519485611842565b828452602083830101116101ad57816000926020809301838601378301015290565b6001600160401b03811161182c5760051b60200190565b60005b8381106118ef5750506000910152565b81810151838201526020016118df565b90602091611918815180928185528580860191016118dc565b601f01601f1916010190565b908082519081815260208091019281808460051b8301019501936000915b8483106119525750505050505090565b9091929394958480611970600193601f198682030187528a516118ff565b9801930193019194939290611942565b90600582101561198d5752565b634e487b7160e01b600052602160045260246000fd5b9060406003198301126101ad5760043591602435906001600160401b0382116101ad576119d29160040161187e565b90565b80548210156119f15760005260206000209060021b0190600090565b634e487b7160e01b600052603260045260246000fd5b90600182811c92168015611a37575b6020831014611a2157565b634e487b7160e01b600052602260045260246000fd5b91607f1691611a16565b9060009291805491611a5283611a07565b918282526001938481169081600014611ab45750600114611a74575b50505050565b90919394506000526020928360002092846000945b838610611aa0575050505001019038808080611a6e565b805485870183015294019385908201611a89565b9294505050602093945060ff191683830152151560051b01019038808080611a6e565b90815180825260208080930193019160005b828110611af7575050505090565b835185529381019392810192600101611ae9565b6000546001600160a01b03163303611b1f57565b60405163118cdaa760e01b8152336004820152602490fd5b6000198114611b465760010190565b634e487b7160e01b600052601160045260246000fd5b818110611b67575050565b60008155600101611b5c565b81810292918115918404141715611b4657565b91908203918211611b4657565b600260015414611ba4576002600155565b604051633ee5aeb560e01b8152600490fd5b80548210156119f15760005260206000200190600090565b600092918154611bdd81611a07565b92600191808316908115611c355750600114611bf95750505050565b90919293945060005260209081600020906000915b858310611c245750505050019038808080611a6e565b805485840152918301918101611c0e565b60ff1916845250505081151590910201915038808080611a6e565b91908201809211611b4657565b602090611c779282604051948386809551938492016118dc565b82019081520301902090565b8115611c8d570490565b634e487b7160e01b600052601260045260246000fd5b3d15611cce573d90611cb482611863565b91611cc26040519384611842565b82523d6000602084013e565b606090565b90611cdd826118c5565b611cea6040519182611842565b8281528092611cfb601f19916118c5565b0190602036910137565b90611d0f826118c5565b611d1c6040519182611842565b8281528092611d2d601f19916118c5565b019060005b828110611d3e57505050565b806060602080938501015201611d32565b80518210156119f15760209160051b010190565b908154611d6f816118c5565b92604093611d7f85519182611842565b828152809460208092019260005281600020906000935b858510611da557505050505050565b60018481928451611dba81610cde818a611a41565b815201930194019391611d96565b60029081548015611fc3579091611dde82611cd3565b92611de883611d05565b92611df281611d05565b92611dfc82611cd3565b92611e0683611cd3565b92611e1081611cd3565b9288611e1b83611cd3565b93611e2584611d05565b93611e2f81611d05565b938b8b611e3b84611cd3565b958c8c6000945b878610611e53575050505050505050565b858095938194826000526003938460205283604098896000209a611e7691611d4f565b5283885180611e85818d611a41565b03611e909082611842565b611e9a8284611d4f565b52611ea491611d4f565b508651839080611eb78160018d01611a41565b03611ec29082611842565b611ecc8284611d4f565b52611ed691611d4f565b508887015491611ee591611d4f565b5284015491611ef391611d4f565b5260048281015490926001600160a01b038216611f10868f611d4f565b52611f1b858d611d4f565b60ff809360a01c1615159052600592858c858401611f3890611d63565b91611f4291611d4f565b52611f4d868d611d4f565b50516008919080611f6081858501611a41565b03611f6b9082611842565b611f75878d611d4f565b52611f80868c611d4f565b5060090154901c1691611f938489611d4f565b91831015611fae5750906001929152018b8e8c8f8d90611e42565b602190634e487b7160e01b6000525260246000fd5b5090506040908151611fd481611811565b600092838252805193611fe685611811565b808552815193611ff585611811565b81855282519361200485611811565b82855283519361201385611811565b83855280519361202285611811565b80855281519361203185611811565b81855282519361204085611811565b82855283519361204f85611811565b838552519261205d84611811565b8084523681379998979695949392919056fea26469706673582212207453d0e0563f830fccff9231e4fb499bec147478cbef1f2966ecdfe15b09680e64736f6c63430008140033",
        "linkReferences": {}
    },
    "methodIdentifiers": {
        "CREATOR_FEE()": "1a7dfa9f",
        "MARKET_CREATION_FEE()": "0a6f8981",
        "PLATFORM_FEE()": "34fbc9a1",
        "claimWinnings(uint256)": "677bd9ff",
        "createMarket(string,string,uint256,uint256,string[],uint8)": "25bad404",
        "getAllMarkets()": "b0772d0b",
        "getMarketBets(uint256,string)": "f83e87db",
        "getMarketInfo(uint256)": "3ec79193",
        "marketCount()": "ec979082",
        "markets(uint256)": "b1283e77",
        "oracle()": "7dc0d1d0",
        "owner()": "8da5cb5b",
        "placeBet(uint256,string)": "5e8af735",
        "renounceOwnership()": "715018a6",
        "resolveBet(uint256,string)": "b8d64c61",
        "resolveMarket(uint256)": "6399d03d",
        "transferOwnership(address)": "f2fde38b",
        "userBets(uint256,address,uint256)": "61c4cc15"
    },
    "id": 28
}