{"abi":[{"type":"constructor","inputs":[{"name":"_oracle","type":"address","internalType":"address"}],"stateMutability":"nonpayable"},{"type":"function","name":"CREATOR_FEE","inputs":[],"outputs":[{"name":"","type":"uint256","internalType":"uint256"}],"stateMutability":"view"},{"type":"function","name":"MARKET_CREATION_FEE","inputs":[],"outputs":[{"name":"","type":"uint256","internalType":"uint256"}],"stateMutability":"view"},{"type":"function","name":"PLATFORM_FEE","inputs":[],"outputs":[{"name":"","type":"uint256","internalType":"uint256"}],"stateMutability":"view"},{"type":"function","name":"claimWinnings","inputs":[{"name":"_marketId","type":"uint256","internalType":"uint256"}],"outputs":[],"stateMutability":"nonpayable"},{"type":"function","name":"createMarket","inputs":[{"name":"_betTitle","type":"string","internalType":"string"},{"name":"_description","type":"string","internalType":"string"},{"name":"_betDeadline","type":"uint256","internalType":"uint256"},{"name":"_resolutionDeadline","type":"uint256","internalType":"uint256"},{"name":"_outcomes","type":"string[]","internalType":"string[]"},{"name":"_category","type":"uint8","internalType":"enum QuintusMarket.MarketCategory"}],"outputs":[],"stateMutability":"payable"},{"type":"function","name":"getAllMarkets","inputs":[],"outputs":[{"name":"marketIds","type":"uint256[]","internalType":"uint256[]"},{"name":"betTitles","type":"string[]","internalType":"string[]"},{"name":"descriptions","type":"string[]","internalType":"string[]"},{"name":"betDeadlines","type":"uint256[]","internalType":"uint256[]"},{"name":"resolutionDeadlines","type":"uint256[]","internalType":"uint256[]"},{"name":"creators","type":"address[]","internalType":"address[]"},{"name":"resolved","type":"bool[]","internalType":"bool[]"},{"name":"outcomes","type":"string[][]","internalType":"string[][]"},{"name":"totalPools","type":"uint256[]","internalType":"uint256[]"},{"name":"winningOutcomes","type":"string[]","internalType":"string[]"},{"name":"categories","type":"uint8[]","internalType":"enum QuintusMarket.MarketCategory[]"}],"stateMutability":"view"},{"type":"function","name":"getMarketBets","inputs":[{"name":"_marketId","type":"uint256","internalType":"uint256"},{"name":"_outcome","type":"string","internalType":"string"}],"outputs":[{"name":"totalBetsForOutcome","type":"uint256","internalType":"uint256"},{"name":"outcomeWeight","type":"uint256","internalType":"uint256"}],"stateMutability":"view"},{"type":"function","name":"getMarketInfo","inputs":[{"name":"_marketId","type":"uint256","internalType":"uint256"}],"outputs":[{"name":"betTitle","type":"string","internalType":"string"},{"name":"description","type":"string","internalType":"string"},{"name":"betDeadline","type":"uint256","internalType":"uint256"},{"name":"resolutionDeadline","type":"uint256","internalType":"uint256"},{"name":"creator","type":"address","internalType":"address"},{"name":"resolved","type":"bool","internalType":"bool"},{"name":"outcomes","type":"string[]","internalType":"string[]"},{"name":"totalPool","type":"uint256","internalType":"uint256"},{"name":"winningOutcome","type":"string","internalType":"string"},{"name":"category","type":"uint8","internalType":"enum QuintusMarket.MarketCategory"}],"stateMutability":"view"},{"type":"function","name":"hasClaimed","inputs":[{"name":"","type":"uint256","internalType":"uint256"},{"name":"","type":"address","internalType":"address"}],"outputs":[{"name":"","type":"bool","internalType":"bool"}],"stateMutability":"view"},{"type":"function","name":"marketCount","inputs":[],"outputs":[{"name":"","type":"uint256","internalType":"uint256"}],"stateMutability":"view"},{"type":"function","name":"markets","inputs":[{"name":"","type":"uint256","internalType":"uint256"}],"outputs":[{"name":"betTitle","type":"string","internalType":"string"},{"name":"description","type":"string","internalType":"string"},{"name":"betDeadline","type":"uint256","internalType":"uint256"},{"name":"resolutionDeadline","type":"uint256","internalType":"uint256"},{"name":"creator","type":"address","internalType":"address"},{"name":"resolved","type":"bool","internalType":"bool"},{"name":"totalPool","type":"uint256","internalType":"uint256"},{"name":"winningOutcome","type":"string","internalType":"string"},{"name":"paid","type":"bool","internalType":"bool"},{"name":"category","type":"uint8","internalType":"enum QuintusMarket.MarketCategory"},{"name":"marketCreated","type":"bool","internalType":"bool"}],"stateMutability":"view"},{"type":"function","name":"oracle","inputs":[],"outputs":[{"name":"","type":"address","internalType":"contract QuintusOracles"}],"stateMutability":"view"},{"type":"function","name":"owner","inputs":[],"outputs":[{"name":"","type":"address","internalType":"address"}],"stateMutability":"view"},{"type":"function","name":"placeBet","inputs":[{"name":"_marketId","type":"uint256","internalType":"uint256"},{"name":"_outcome","type":"string","internalType":"string"}],"outputs":[],"stateMutability":"payable"},{"type":"function","name":"renounceOwnership","inputs":[],"outputs":[],"stateMutability":"nonpayable"},{"type":"function","name":"resolveBet","inputs":[{"name":"_marketId","type":"uint256","internalType":"uint256"},{"name":"_outcome","type":"string","internalType":"string"}],"outputs":[],"stateMutability":"nonpayable"},{"type":"function","name":"resolveMarket","inputs":[{"name":"_marketId","type":"uint256","internalType":"uint256"}],"outputs":[],"stateMutability":"nonpayable"},{"type":"function","name":"transferOwnership","inputs":[{"name":"newOwner","type":"address","internalType":"address"}],"outputs":[],"stateMutability":"nonpayable"},{"type":"function","name":"userBets","inputs":[{"name":"","type":"uint256","internalType":"uint256"},{"name":"","type":"address","internalType":"address"},{"name":"","type":"uint256","internalType":"uint256"}],"outputs":[{"name":"marketId","type":"uint256","internalType":"uint256"},{"name":"amount","type":"uint256","internalType":"uint256"},{"name":"outcome","type":"string","internalType":"string"},{"name":"status","type":"uint8","internalType":"enum QuintusMarket.BetStatus"},{"name":"potentialWinnings","type":"uint256","internalType":"uint256"}],"stateMutability":"view"},{"type":"event","name":"BetPlaced","inputs":[{"name":"marketId","type":"uint256","indexed":true,"internalType":"uint256"},{"name":"user","type":"address","indexed":false,"internalType":"address"},{"name":"outcome","type":"string","indexed":false,"internalType":"string"},{"name":"amount","type":"uint256","indexed":false,"internalType":"uint256"}],"anonymous":false},{"type":"event","name":"MarketCreated","inputs":[{"name":"marketId","type":"uint256","indexed":true,"internalType":"uint256"},{"name":"betTitle","type":"string","indexed":false,"internalType":"string"},{"name":"creator","type":"address","indexed":false,"internalType":"address"},{"name":"category","type":"uint8","indexed":false,"internalType":"enum QuintusMarket.MarketCategory"}],"anonymous":false},{"type":"event","name":"MarketReadyForResolution","inputs":[{"name":"marketId","type":"uint256","indexed":true,"internalType":"uint256"},{"name":"betTitle","type":"string","indexed":false,"internalType":"string"},{"name":"outcomes","type":"string[]","indexed":false,"internalType":"string[]"},{"name":"totalPool","type":"uint256","indexed":false,"internalType":"uint256"},{"name":"creator","type":"address","indexed":false,"internalType":"address"},{"name":"category","type":"uint8","indexed":false,"internalType":"enum QuintusMarket.MarketCategory"}],"anonymous":false},{"type":"event","name":"MarketResolved","inputs":[{"name":"marketId","type":"uint256","indexed":true,"internalType":"uint256"},{"name":"winningOutcome","type":"string","indexed":false,"internalType":"string"}],"anonymous":false},{"type":"event","name":"OwnershipTransferred","inputs":[{"name":"previousOwner","type":"address","indexed":true,"internalType":"address"},{"name":"newOwner","type":"address","indexed":true,"internalType":"address"}],"anonymous":false},{"type":"event","name":"WinningsClaimed","inputs":[{"name":"marketId","type":"uint256","indexed":true,"internalType":"uint256"},{"name":"user","type":"address","indexed":false,"internalType":"address"},{"name":"amount","type":"uint256","indexed":false,"internalType":"uint256"}],"anonymous":false},{"type":"error","name":"AlreadyPaid","inputs":[]},{"type":"error","name":"BettingAmountCannotBeZero","inputs":[]},{"type":"error","name":"BettingDeadlinePassed","inputs":[]},{"type":"error","name":"InsufficientFee","inputs":[]},{"type":"error","name":"InsufficientOutcomes","inputs":[]},{"type":"error","name":"InvalidBetDeadline","inputs":[]},{"type":"error","name":"InvalidOutcome","inputs":[]},{"type":"error","name":"InvalidResolutionDeadline","inputs":[]},{"type":"error","name":"MarketAlreadyResolved","inputs":[]},{"type":"error","name":"MarketNotCreated","inputs":[]},{"type":"error","name":"MarketNotResolved","inputs":[]},{"type":"error","name":"NoBetsOnWinningOutcome","inputs":[]},{"type":"error","name":"NoExistingBets","inputs":[]},{"type":"error","name":"NoWinningsToClaim","inputs":[]},{"type":"error","name":"OwnableInvalidOwner","inputs":[{"name":"owner","type":"address","internalType":"address"}]},{"type":"error","name":"OwnableUnauthorizedAccount","inputs":[{"name":"account","type":"address","internalType":"address"}]},{"type":"error","name":"ReentrancyGuardReentrantCall","inputs":[]},{"type":"error","name":"TooEarlyToResolve","inputs":[]},{"type":"error","name":"TransferFailed","inputs":[]},{"type":"error","name":"UnauthorizedOracle","inputs":[]}],"bytecode":{"object":"0x60a0346100d357601f6121c038819003918201601f19168301916001600160401b038311848410176100d8578084926020946040528339810103126100d357516001600160a01b0390818116908190036100d35733156100ba576000543360018060a01b0319821617600055604051923391167f8be0079c531659141344cd1fd0a4f28419497f9722a3daafe3b4186f6b6457e0600080a3600180556080526120d190816100ef823960805181818161024a01526107ab0152f35b604051631e4fbdf760e01b815260006004820152602490fd5b600080fd5b634e487b7160e01b600052604160045260246000fdfe608080604052600436101561001357600080fd5b60003560e01c9081630a6f89811461183e575080631a7dfa9f1461182257806325bad4041461121957806334fbc9a1146111fd5780633ec79193146110cb5780635e8af73514610d7157806361c4cc1514610cb25780636399d03d14610b55578063677bd9ff14610833578063715018a6146107da5780637dc0d1d014610795578063873f6f9e146107485780638da5cb5b1461071f578063b0772d0b14610548578063b1283e7714610427578063b8d64c6114610239578063ec9790821461021b578063f2fde38b1461018b5763f83e87db146100f057600080fd5b34610186576100fe366119c4565b90600052600360205261011a6040600020916006830190611c87565b54908115610174576007015490811561016957606481028181046064036101535760409261014791611cad565b82519182526020820152f35b634e487b7160e01b600052601160045260246000fd5b604091506000610147565b60405163716351d760e01b8152600490fd5b600080fd5b34610186576020366003190112610186576004356001600160a01b0381811691829003610186576101ba611b42565b811561020257600054826bffffffffffffffffffffffff60a01b821617600055167f8be0079c531659141344cd1fd0a4f28419497f9722a3daafe3b4186f6b6457e0600080a3005b604051631e4fbdf760e01b815260006004820152602490fd5b34610186576000366003190112610186576020600254604051908152f35b3461018657610247366119c4565b907f00000000000000000000000000000000000000000000000000000000000000006001600160a01b0316330361041557806000526020916003835260406000206008810182516001600160401b0381116103ff576102a68254611a3e565b601f81116103c4575b5085601f821160011461033a5791817f2ec1f84b4079525f1ab2216f53a16f520efec75c91c517667151e55bbea7b9ec9697949260049460009161032f575b508160011b916000199060031b1c19161790555b01805460ff60a01b1916600160a01b17905560405181815291829161032a9190830190611936565b0390a2005b9050860151896102ee565b601f1982169083600052876000209160005b8181106103ad57509260049492600192827f2ec1f84b4079525f1ab2216f53a16f520efec75c91c517667151e55bbea7b9ec9a9b989610610394575b5050811b019055610302565b88015160001960f88460031b161c191690558980610388565b91928960018192868b01518155019401920161034c565b6103ef908360005287600020601f840160051c8101918985106103f5575b601f0160051c0190611b9e565b866102af565b90915081906103e2565b634e487b7160e01b600052604160045260246000fd5b60405163db8d1fb760e01b8152600490fd5b346101865760203660031901126101865760043560005260036020526104d56040600020604051906104648261045d8184611a78565b0383611879565b60ff610519604051926104858461047e8160018501611a78565b0385611879565b60028101549060038101548460048301546007840154926104e36009604051966104bd886104b68160088501611a78565b0389611879565b0154996040519c8d9c8d610160908181520190611936565b8c810360208e015290611936565b9560408b015260608a015260018060a01b03811660808a015260a01c16151560a088015260c087015285820360e0870152611936565b9181811615156101008501526105386101208501838360081c166119b7565b60101c1615156101408301520390f35b3461018657600036600319011261018657610561611dc2565b9799989660409691969592949395519a8b9a610160808d528c0161058491611b0e565b986020998c8b8183039101526105999161195b565b8b810360408d01526105aa9161195b565b8a810360608c01526105bb91611b0e565b89810360808b01526105cc91611b0e565b88810360a08a015286808351928381520192019060005b8181106106ff5750505087810360c089015285808351928381520192019060005b8181106106e65750505086810360e088015282518082528582019186808360051b8301019501926000915b8383106106ae575050505050816106529187610661959403610100890152611b0e565b9085820361012087015261195b565b83810361014085015281808451928381520193019160005b82811061068857505050500390f35b919383955090808261069e6001948397516119b7565b0195019101918594939192610679565b9193969780809a9b506106d0600193959798601f198682030187528a5161195b565b98019301930190928a999897969594929361062f565b8251151584528a99509287019291870191600101610604565b82516001600160a01b031684528b9a5092880192918801916001016105e3565b34610186576000366003190112610186576000546040516001600160a01b039091168152602090f35b34610186576040366003190112610186576107616119f6565b600435600052600560205260406000209060018060a01b0316600052602052602060ff604060002054166040519015158152f35b34610186576000366003190112610186576040517f00000000000000000000000000000000000000000000000000000000000000006001600160a01b03168152602090f35b34610186576000366003190112610186576107f3611b42565b600080546001600160a01b0319811682556001600160a01b03167f8be0079c531659141344cd1fd0a4f28419497f9722a3daafe3b4186f6b6457e08280a3005b34610186576020806003193601126101865760043590610851611bd5565b8160005260038082526040600020600481019060ff9081835460a01c1615610b4357856000526005855260406000203360005285528160406000205416610b3157600881019360405186816108a68189611bf8565b6006860181520301902054918215610b1f5760070154906000958860005260048852604060002033600052885260406000209182549560005b878110610a11578b8b8b8b81156109ff576019820291808304601903610153576103e880930492600a820290828204600a0361015357600085610933829561092e849695859604938492611bc8565b611bc8565b968983526005895260408320338452895260408320600160ff198254161790558280808060018060a01b0394858254165af19661096e611b6e565b5054165af19061097c611b6e565b50600080808086335af19061098f611b6e565b50159182156109f6575b5081156109ed575b506109db577f5380cf6fe903b40c6d5a9e0dfbca2f3a423f0a21520b4d5947ed5169bdba946d91604091825191338352820152a260018055005b6040516312171d8360e31b8152600490fd5b905015846109a1565b15915085610999565b604051634519bd6360e01b8152600490fd5b8183610a1d8388611a0c565b5001541683811015610b095715610a37575b6001016108df565b98610a428a86611a0c565b506040518c810181610a58826002809601611bf8565b0391610a6c601f1993848101835282611879565b519020908d610a926040519182019282610a86858c611bf8565b03908101835282611879565b51902003610ae85750610adf600191610ad989610ad48a8f610acc8a610ab8838f611a0c565b5001805460ff19168a17905588918d611a0c565b500154611bb5565b611cad565b90611c7a565b995b9050610a2f565b996001919a84610af88389611a0c565b50019060ff19825416179055610ae1565b634e487b7160e01b600052602160045260246000fd5b60405163d4d1c7b160e01b8152600490fd5b604051630d70a0e360e41b8152600490fd5b60405163174b639360e11b8152600490fd5b346101865760208060031936011261018657600435610b72611bd5565b80600052600382526040600020600981015460ff8160101c1615610ca05760038201544210610c8e57600482015460ff8160a01c16610c7c576005830194600784015490610bcb6040519560a0875260a0870190611a78565b908582038187015287549081835280830192818360051b8201019960005281600020936000915b848310610c4f578a7f22bd5d5321ce9d1d634d90214f1258550ca0eaeba44c74c521e4ea27d8007d0f8b808f610c468e8e8e604086015260018060a01b0316606085015260ff608085019160081c166119b7565b0390a260018055005b90919293949a846001610c6c81938f601f19878303018852611a78565b9d01930193019194939290610bf2565b60405163aa43cb2d60e01b8152600490fd5b604051630fce133d60e01b8152600490fd5b6040516396e1352960e01b8152600490fd5b3461018657606036600319011261018657610ccb6119f6565b60443590600435600052600460205260406000209060018060a01b0316600052602052604060002090815481101561018657610d0691611a0c565b508054906001810154610d57604051610d2d81610d268160028801611a78565b0382611879565b600460ff60038601541694015492604051958652602086015260a0604086015260a0850190611936565b906003831015610b09578392606084015260808301520390f35b610d7a366119c4565b90610d83611bd5565b80600052602091600383526040600020600254831015610ca05760ff600482015460a01c16610c7c5760028101544210156110ba5734156110a85760006005820180549060005b828110611031575b5050501561101f5780610e1f610e1860066007610e26950193610df6348654611c7a565b85550192610e048487611c87565b610e0f348254611c7a565b90555434611bb5565b9184611c87565b5490611cad565b826000526004845260406000203360005284526040600020936040519260a08401906001600160401b0391858110838211176103ff57604052858552828501913483526040860190828252606087019360008552608088019687528954600160401b8110156103ff57610ea09060019b8c82018155611a0c565b98909861100957518855518988015560028701915180519182116103ff578190610eca8454611a3e565b601f8111610fd9575b508690601f8311600114610f7657600092610f6b575b5050600019600383901b1c191690891b1790555b600385019151946003861015610b09576004606095610f5e947ffabf9d34f9bf696c17fd04bafbdc4f74840410108fc5db3f77ea5f0815edc7369860ff80198354169116179055519101556040519384933385528401526060830190611936565b3460408301520390a28055005b015190508a80610ee9565b908b9350601f1983169185600052886000209260005b8a828210610fc35750508411610faa575b505050811b019055610efd565b015160001960f88460031b161c191690558a8080610f9d565b8385015186558f97909501949384019301610f8c565b611003908560005288600020601f850160051c8101918a86106103f557601f0160051c0190611b9e565b8b610ed3565b634e487b7160e01b600052600060045260246000fd5b60405163c74a206d60e01b8152600490fd5b8160005280886000200160405161105d8161104f8c82018095611bf8565b03601f198101835282611879565b5190206040518981019061108a8b828161107d8d87815193849201611913565b8101038084520182611879565b5190201461109a57600101610dca565b505050506001858080610dd2565b604051633dc8218f60e11b8152600490fd5b60405162543af960e41b8152600490fd5b34610186576020366003190112610186576004356000526003602052604060002060098101549060ff8260101c1615610ca057611157916111f96111e78360086111d3600261119497015460038401549360ff60048201546007830154966111a260405161113d81610d268189611a78565b6040519e8f806111508160018b01611a78565b0390611879565b61117e61116660058801611d5d565b96611177604051809c819301611a78565b038a611879565b6040519e8f9e8f92610140808552840190611936565b916020818403910152611936565b9460408d015260608c015260018060a01b03811660808c015260a01c16151560a08a015288820360c08a015261195b565b9160e0870152858203610100870152611936565b9160ff61012085019160081c166119b7565b0390f35b3461018657600036600319011261018657602060405160198152f35b60c0366003190112610186576004356001600160401b038111610186576112449036906004016118b5565b6024356001600160401b038111610186576112639036906004016118b5565b6084356001600160401b03811161018657366023820112156101865780600401359061128e826118fc565b9061129c6040519283611879565b82825260208201906024829460051b820101903682116101865760248101925b8284106117f35750505050600560a4351015610186576112da611bd5565b4260443511156117e25760443560643511156117d05760028151106117be57662386f26fc100008034106117ad5760008080809360018060a01b038254165af1611322611b6e565b50156109db5760025460001981146101535760018101600255600052600360205260406000209284516001600160401b0381116103ff576113638554611a3e565b601f811161177b575b50806020601f821160011461171457600091611709575b508160011b916000199060031b1c19161784555b8051906001600160401b0382116103ff5781906113b76001870154611a3e565b601f81116116d4575b50602090601f831160011461166257600092611657575b50508160011b916000199060031b1c19161760018401555b604435600284015560643560038401556004830180546001600160a01b031916331790555190600160401b82116103ff5760058301548260058501558083106115df575b5090600583016000526020600020916000905b8282106114ca5760098501805462ffff00191660a43560081b61ff0016176201000017905560025460001981019087908211610153576114b57f06d87b89e7940705d41ad9741832374ef202320451e21252ed0a64e963891e3d91604051918291606083526060830190611936565b336020830152610c466040830160a4356119b7565b80518051906001600160401b0382116103ff576114e78654611a3e565b601f81116115ad575b50602090601f831160011461153d579282600194936020938695600092611532575b5050600019600383901b1c191690841b1787555b01940191019092611446565b015190508b80611512565b908660005260206000209160005b601f1985168110611595575083602093600196938796938794601f1981161061157c575b505050811b018755611526565b015160001960f88460031b161c191690558b808061156f565b9192602060018192868501518155019401920161154b565b6115d990876000526020600020601f850160051c810191602086106103f557601f0160051c0190611b9e565b886114f0565b600584016000526020600020908382015b8183018110611600575050611433565b8061160d60019254611a3e565b8061161a575b50016115f0565b601f811183146116305750600081555b88611613565b60009082825261164e601f60208420920160051c8201858301611b9e565b8183555561162a565b0151905086806113d7565b9250600186016000526020600020906000935b601f19841685106116b9576001945083601f198116106116a0575b505050811b0160018401556113ef565b015160001960f88460031b161c19169055868080611690565b81810151835560209485019460019093019290910190611675565b61170390600188016000526020600020601f850160051c810191602086106103f557601f0160051c0190611b9e565b876113c0565b905086015187611383565b91508560005260206000206000925b601f1983168410611763576001935082601f1981161061174a575b5050811b018455611397565b88015160001960f88460031b161c19169055878061173e565b88810151825560209384019360019092019101611723565b6117a790866000526020600020601f840160051c810191602085106103f557601f0160051c0190611b9e565b8661136c565b60405162976f7560e21b8152600490fd5b6040516337c4dd8b60e01b8152600490fd5b6040516322aaf0ed60e21b8152600490fd5b604051629f70e560e61b8152600490fd5b83356001600160401b038111610186576020916118178392602436918701016118b5565b8152019301926112bc565b34610186576000366003190112610186576020604051600a8152f35b346101865760003660031901126101865780662386f26fc1000060209252f35b602081019081106001600160401b038211176103ff57604052565b90601f801991011681019081106001600160401b038211176103ff57604052565b6001600160401b0381116103ff57601f01601f191660200190565b81601f82011215610186578035906118cc8261189a565b926118da6040519485611879565b8284526020838301011161018657816000926020809301838601378301015290565b6001600160401b0381116103ff5760051b60200190565b60005b8381106119265750506000910152565b8181015183820152602001611916565b9060209161194f81518092818552858086019101611913565b601f01601f1916010190565b90808183519182825260208080809401958560051b01019501936000915b8483106119895750505050505090565b90919293949584806119a7600193601f198682030187528a51611936565b9801930193019194939290611979565b906005821015610b095752565b9060406003198301126101865760043591602435906001600160401b038211610186576119f3916004016118b5565b90565b602435906001600160a01b038216820361018657565b8054821015611a28576000526005602060002091020190600090565b634e487b7160e01b600052603260045260246000fd5b90600182811c92168015611a6e575b6020831014611a5857565b634e487b7160e01b600052602260045260246000fd5b91607f1691611a4d565b9060009291805491611a8983611a3e565b918282526001938481169081600014611aeb5750600114611aab575b50505050565b90919394506000526020928360002092846000945b838610611ad7575050505001019038808080611aa5565b805485870183015294019385908201611ac0565b9294505050602093945060ff191683830152151560051b01019038808080611aa5565b90815180825260208080930193019160005b828110611b2e575050505090565b835185529381019392810192600101611b20565b6000546001600160a01b03163303611b5657565b60405163118cdaa760e01b8152336004820152602490fd5b3d15611b99573d90611b7f8261189a565b91611b8d6040519384611879565b82523d6000602084013e565b606090565b818110611ba9575050565b60008155600101611b9e565b8181029291811591840414171561015357565b9190820391821161015357565b600260015414611be6576002600155565b604051633ee5aeb560e01b8152600490fd5b600092918154611c0781611a3e565b92600191808316908115611c5f5750600114611c235750505050565b90919293945060005260209081600020906000915b858310611c4e5750505050019038808080611aa5565b805485840152918301918101611c38565b60ff1916845250505081151590910201915038808080611aa5565b9190820180921161015357565b602090611ca1928260405194838680955193849201611913565b82019081520301902090565b8115611cb7570490565b634e487b7160e01b600052601260045260246000fd5b90611cd7826118fc565b611ce46040519182611879565b8281528092611cf5601f19916118fc565b0190602036910137565b90611d09826118fc565b611d166040519182611879565b8281528092611d27601f19916118fc565b019060005b828110611d3857505050565b806060602080938501015201611d2c565b8051821015611a285760209160051b010190565b908154611d69816118fc565b92604093611d7985519182611879565b828152809460208092019260005281600020906000935b858510611d9f57505050505050565b60018481928451611db481610d26818a611a78565b815201930194019391611d90565b60028054918215611fde57611dd683611ccd565b92611de081611cff565b92611dea82611cff565b92611df483611ccd565b92611dfe81611ccd565b92611e0882611ccd565b92611e1283611ccd565b92611e1c81611cff565b92611e2682611ccd565b92611e3083611cff565b92611e3a81611ccd565b9260005b828110611e4a57505050565b889e9d9c9b9a99988e8a8f8f8f8f9092878094819482600052600393846020528360409a8b60002099611e7c91611d49565b52838a5180611e8b818c611a78565b03611e969082611879565b611ea08284611d49565b52611eaa91611d49565b508851839080611ebd8160018c01611a78565b03611ec89082611879565b611ed28284611d49565b52611edc91611d49565b508a86015491611eeb91611d49565b5283015491611ef991611d49565b526004818101549094909286906001600160a01b03851690611f1c908390611d49565b52611f2691611d49565b60ff809360a01c16151590526007810154611f41868d611d49565b526005928c86611f52848701611d5d565b611f5c8284611d49565b52611f6691611d49565b50516008919080611f7981858501611a78565b03611f849082611879565b611f8e878d611d49565b52611f99868c611d49565b5060090154901c1691611fac8489611d49565b91831015611fc95750906001929152019d9798999a9b9c9d611e3e565b602190634e487b7160e01b6000525260246000fd5b915050604090815190611ff08261185e565b6000918281528351936120028561185e565b8385528051936120118561185e565b8085528151936120208561185e565b81855282519361202f8561185e565b82855283519361203e8561185e565b83855280519361204d8561185e565b80855281519361205c8561185e565b81855282519361206b8561185e565b82855283519361207a8561185e565b83855251926120888461185e565b8084523681379a9998979695949392919056fea26469706673582212206ddca537cfe3de825240183229c71a162c841a5bb8bfc489fb0cf4d926f8866464736f6c63430008140033","linkReferences":{}},"methodIdentifiers":{"CREATOR_FEE()":"1a7dfa9f","MARKET_CREATION_FEE()":"0a6f8981","PLATFORM_FEE()":"34fbc9a1","claimWinnings(uint256)":"677bd9ff","createMarket(string,string,uint256,uint256,string[],uint8)":"25bad404","getAllMarkets()":"b0772d0b","getMarketBets(uint256,string)":"f83e87db","getMarketInfo(uint256)":"3ec79193","hasClaimed(uint256,address)":"873f6f9e","marketCount()":"ec979082","markets(uint256)":"b1283e77","oracle()":"7dc0d1d0","owner()":"8da5cb5b","placeBet(uint256,string)":"5e8af735","renounceOwnership()":"715018a6","resolveBet(uint256,string)":"b8d64c61","resolveMarket(uint256)":"6399d03d","transferOwnership(address)":"f2fde38b","userBets(uint256,address,uint256)":"61c4cc15"},"id":26}